:020000040000FA
:1000000088080010C9010000D1010000D3010000E0
:10001000D5010000D7010000D90100000000000058
:10002000000000000000000000000000DB010000F4
:10003000DD01000000000000DF0100002B040000D3
:10004000E5010000E5010000E5010000E501000018
:10005000E5010000E5010000E5010000E501000008
:10006000E5010000E5010000E5010000E5010000F8
:10007000E5010000E5010000E5010000E5010000E8
:10008000E5010000E5010000E5010000E5010000D8
:10009000E5010000E5010000E50100005D0400004D
:1000A000E5010000E5010000E5010000E3010000BA
:1000B000E5010000E5010000E5010000E5010000A8
:1000C00000F002F800F054F80CA030C808382418EA
:1000D0002D18A246671EAB4654465D46AC4201D180
:1000E00000F046F87E460F3E0FCCB646012633425E
:1000F00000D0FB1AA246AB463343184764200000E9
:1001000084200000103A02D378C878C1FAD8520788
:1001100001D330C830C101D504680C6070470000BD
:100120000023002400250026103A01D378C1FBD813
:10013000520700D330C100D50B60704710B5642959
:1001400002D101F0F9FA10BD732902D101F004FDCA
:1001500010BD002010BD1FB501F0DCFD0400002023
:10016000002101F037FE401C60601FBD10B510BDBE
:1001700001F0B1FD1146FFF7EEFF00F0D2F901F0FA
:10018000DCFD03B4FFF7F2FF03BC01F0F6F800005A
:1001900070B505460C46164602E00FCC0FC5103E62
:1001A000102EFAD2082E02D303CC03C5083E042E2B
:1001B00007D301CC01C5361F03E021782970641CE8
:1001C0006D1C761EF9D270BD0A4880470A48004768
:1001D000FEE7FEE7FEE7FEE7FEE7FEE7FEE7FEE7F7
:1001E000FEE7FEE7FEE7000004480549054A064B26
:1001F000704700000D020000C100000088050010DB
:1002000088080010880600108806001010B501F05C
:100210006AF910BD0B0A51400906C90D405A5840F1
:1002200070470A4601460F48F4E770B505460020BE
:100230000E46044604E029786D1CFFF7F2FF641CAB
:10024000B442F8D370BD70B505460E46064800248A
:1002500004E029786D1CFFF7E4FF641CB442F8D376
:1002600070BD0000001E0000FFFF000010B500F090
:1002700066FD0149086010BD5000001030B5002334
:1002800006E09C000C592506240AAD0D44515B1C68
:100290009342F6D330BD0000482108400F49401872
:1002A0000F4908637047ED21C0B2090240180C499C
:1002B000486370470A498A6BC0B2D2B21043ED223C
:1002C0001202104388637047054A916BC0B2C9B2ED
:1002D0008143ED200002014391637047B71800008D
:1002E0000082044070477047704700000048704724
:1002F000240500100048704724050010FFFFFFFF91
:10030000FF228307DB0E9A408907090E99400028D7
:100310000BDA0007000F08388308E1489B00181823
:10032000C36993430B43C36170478308DD489B0057
:100330001B18186890430843186070477FB500F099
:10034000B6FB002803D00020C04304B070BDD648DF
:1003500000F04CFA002000F0E2FA002802D06220FF
:10036000C043F2E70424254600F0A0FA002802D09A
:100370006D1EF9D201E0002D06D000F080FA0A28A7
:1003800005DA0220C043E0E70120C043DDE700F0CA
:1003900011FB012802D0641EF9D201E0002C06D026
:1003A00000F081FB002805D00420C043CDE70320E6
:1003B000C043CAE7BDA000F09FFA002802D0052084
:1003C000C043C2E700F00DFB002802D00620C04366
:1003D000BBE7684600F009FB002802D00720C043B5
:1003E000B3E76946B3A001F025F90020ADE700B5F9
:1003F00087B01822B1A16846FFF7CAFEB54AB6A178
:10040000B9A000F09AFA002803D00820C04307B032
:1004100000BD684601F0E8F981B2684600F020FBB3
:100420000028F4D00920C043F1E770B5AF4C7D211E
:10043000C900606801F05BFA0125002903D16570ED
:10044000A068401CA060AA49606801F050FA002929
:1004500000D125706068401C606070BDA54A10B571
:1004600011461431A44800F014FE10BD10B59F4889
:100470004178002904D000214170012000F0B9FF2B
:1004800010BD10B50C46010014D000200A5C2254A7
:10049000401C2228FADB20212046FFF7C6FE20342C
:1004A000617822780902114349BA884205D00120B7
:1004B000C04310BD0020C04310BD0020207010BDFF
:1004C00010B50B4602468B498B4800F0BBFD10BDB2
:1004D000884910B51431CA680969531A002B01DC28
:1004E000002010BD834902461431834800F0C9FD45
:1004F00010BD10B5814905200A68000708231A437A
:100500000A6003220123114600F081F810BD034662
:1005100010B5032205201146000700F078F810BD41
:10052000FEE7FFF7A3FE00F070FFFFF7E2FF74485D
:100530007D21C900006801F0DAF972490025401EEA
:10054000884208D8704C60610321081FFFF7D8FE6D
:10055000A56107202061E1214902674800F05FF8AA
:100560006449FF2428310134084623460122143807
:1005700000F016FE2346012264495E4800F010FE9A
:100580005A4C63A0E16801F055F85A490F2024390C
:100590000003FFF776FF00280AD05EA001F04AF8BA
:1005A000FFF7CCFE010009D05FA001F043F8FEE7A1
:1005B000504964A0243901F03DF8F1E765A001F04D
:1005C00039F8444A44A148A000F0B7F9002803D004
:1005D00066A001F02FF8FEE76CA001F02BF8207860
:1005E00000280FD06EA001F025F82570206901F0D9
:1005F000FBF881B2206900F033FA002805D06EA024
:1006000001F018F8FFF732FFE9E76FA0F8E7934031
:10061000090409180120904080000B507047F3B581
:1006200004466E4D6E486F4E334F81B0AC4204D1DC
:100630000121A4228150A82205E0B44205D1032162
:10064000C8228150C422815005E0BC4227D1032139
:10065000C02281508161204600F054FC204602995E
:1006600000F0B5FC0320E0608120A06080212163C0
:100670006168052001436160AC4201D1152406E0A8
:10068000B44201D1162402E0BC4200D1172401215A
:100690002046FFF735FE01205349A0400860FEBD0B
:1006A00000ED00E000E400E0B80B0000434D4E45D3
:1006B0005400000049503A25730D0A0061757468B2
:1006C0006F72697A6174696F6E2072657175657396
:1006D000740D0A00567A00006F72616E67652E35E0
:1006E000353535352E696F00544350000000001039
:1006F000102700007C0000100040024000800350E2
:1007000050000010FFFFFF0000E000E0A401001017
:100710002573000067657420756964206661696CE3
:1007200065640D0A00000000475052532053657461
:100730007570206661696C65642C7265743D256412
:100740000D0A0000676574207569643A25730D0A07
:1007500000000000475052532068616420626565C4
:100760006E2073657475700D0A0000004661696C37
:10077000656420746F20636F6E6E65637420746FA0
:10078000207365727665720D0A000000436F6E6E0D
:1007900065637420746F207365727665720D0A004C
:1007A000737461727420746F20617574686F7269FC
:1007B0007A65210D0A00000053656E642066616948
:1007C0006C65640D0A00000053656E6420737563E8
:1007D0006365737366756C6C790D0A000080004068
:1007E000004004400000024000E100E0C34A06E08F
:1007F00000BF00BF114600BF491E0029FBDC401EA0
:10080000F6D27047F7B5002416460746254600285D
:1008100010D0019800280DD001214902B84801F0FC
:1008200062F8384600F0E0FF01463846FFF748FE20
:10083000B34F0EE00020C043FEBD7819FFF748FE1D
:10084000002802DD00242D1800E0641C0120FFF7C1
:10085000CDFFB442F1D3AA49AAA000F0EBFEA8480C
:10086000019900F0ACFF002801D00020FEBD01205E
:10087000C043FEBD7D22D200A5A1A6A0C2E710B54F
:100880007D22D200A2A1A4A0FFF7BCFF0024E44374
:10089000002809D1A2A19A4800F091FF002803D0B6
:1008A000801D00F07FFF10BD204610BD7D22D200CC
:1008B0009DA1A1A0A6E770B57D22D20094A1A1A020
:1008C000FFF7A0FF0026F643002813D1A1A18C4812
:1008D00000F075FF00280DD0A04D0024A00029587D
:1008E000874800F06CFF002801D0204670BD641CD2
:1008F0000F2CF3DB304670BD10B500280CD003463A
:1009000097A29AA19B4800F0A3FE7D22D20080A16D
:100910009848FFF777FF10BD0020C04310BD10B509
:10092000034695A295A1934800F092FE7D22D20045
:1009300077A19048FFF766FF10BD1CB50024E44383
:10094000002819D0002917D00346019200918DA2EA
:1009500090A1884800F07CFE924A6DA18548FFF77F
:1009600051FF002808D17D48816A654800F027FFC3
:10097000002801D000201CBD20461CBD7D22D200D5
:1009800089A18CA03EE710B57D22D20060A18CA089
:10099000FFF738FF0024E443002809D18BA1584811
:1009A00000F00DFF002803D00A3000F0FBFE10BD60
:1009B000204610BD10B57D22D20055A186A0FFF7BC
:1009C00021FF0024E443002809D186A14C4800F00F
:1009D000F6FE002803D0083000F0E4FE10BD2046EB
:1009E00010BD834A4AA183A00CE7F8B500256F1E0D
:1009F00006462C46002817D07D22D20050A180A0A8
:100A0000FFF700FF3E4900280ED108E00246303AC9
:100A1000092A01D92E2801D13055641C6D1C485D6E
:100A20000028F3D1002C01DC3846F8BD00203055F9
:100A3000F8BD10B57D22D20035A174A0FFF7E2FE0B
:100A40000024E443002809D174A12D4800F0B7FE2A
:100A5000002803D00A3000F0A5FE10BD204610BDCE
:100A6000F8B50024671E0D460646002807D07D22F3
:100A7000D2006DA16DA0FFF7C5FE002801D0384659
:100A8000F8BD3C4802E0315D0155641CAC42FADB24
:100A90001A214155002140194170554A66A1354837
:100AA000FFF7B0FEF8BD524A65A167A0AAE610B5EF
:100AB0000524FFF7DFFE002814D00020FFF727FDF4
:100AC0007D200001FFF792FE03E0FFF7D3FE002830
:100AD00009D02046641E0028F7DC0120FFF717FD2F
:100AE0000020C04310BD0120FFF711FD002010BD04
:100AF0007D22D20057A15CA084E60000BE12000057
:100B0000A4020010726563763A25730D0A00000096
:100B10004F4B000041540D0041542B4353510D00E5
:100B20002B4353513A2000002B4350494E3A205258
:100B3000454144590000000041542B4350494E3F69
:100B40000D00000041542B43495053544154555318
:100B50000D00000053544154453A000014000010A9
:100B600041542B435354543D00000000257322256B
:100B700073220D00A4040010415445002573256420
:100B80000D00000041542B43495053544152543DF1
:100B9000000000002573222573222C222573222CAD
:100BA00025640D0010270000434C4F5345204F4B48
:100BB0000000000041542B4950434C4F53450D0059
:100BC00041542B43475245473F0D00002B434752AA
:100BD00045473A200000000041542B4347415454FC
:100BE0003F0D00002B43474154543A2000000000C1
:100BF000B80B000041542B43494943520D000000FB
:100C000041542B43494653520D00000041542B439D
:100C1000495053454E443F0D000000002B434950BE
:100C200053454E443A2000003E00000041542B43FF
:100C3000495053454E440D0053454E44204F4B0000
:100C400053485554204F4B0041542B43495053486F
:100C500055540D004E4F524D414C20504F57455268
:100C600020444F574E00000041542B43504F5744EF
:100C70003D310D0036490860002048600120486081
:100C800070470022002800D00122002901D0022054
:100C900002432F484038026270472D490863002004
:100CA0004863012048637047294A80321061002060
:100CB00050610120506191617047254A8032106275
:100CC000002050620120506291627047204810B5A8
:100CD0004038406AC1050A0FC006810E90001D4AC7
:100CE000891C105800F003FE10BD194800688007E9
:100CF000800F03D0012803D00020704716487047AA
:100D0000164800687047124800B540388168FFF700
:100D1000ECFFC906C90E491C484300BD0C49002020
:100D2000096B8907890F06D0012906D0022905D051
:100D3000032901D1E7E708487047D6E7C6E710B5B1
:100D4000FFF7ECFF0249896B00F0D1FD10BD0000F8
:100D50004080044000200000001BB7004420000039
:100D60003248016840221143016070472F480168F2
:100D7000402291430160704730B50125ED03012405
:100D800094400904081840190168002B01D0214340
:100D900000E0A143016030BD10B501240904E40363
:100DA000081800190168002B01D0114300E091439D
:100DB000016010BD090408180121C9034018012170
:100DC00091400268002B01D00A4300E08A43026090
:100DD0007047090408180121C90340180168002B55
:100DE00001D0114300E091430160704710B5012428
:100DF0009440090408180121C90340189A07416862
:100E0000002A09DAA14341605907816801D52143CD
:100E100000E0A143816001E021434160D907C1683E
:100E200001D0214300E0A143C16010BD8080044097
:100E300008B52020FFF748FA00200090012040026A
:100E40000099491C00918142FADB0120FFF712FF53
:100E50008020FFF72FFA0121032000F046F88020C0
:100E6000FFF732FA2548C168C907C90FFBD02349EB
:100E7000012040318863022000F030F80320FFF7A2
:100E80000CFF08BD10B50220FFF71EFA0120FFF786
:100E90001BFA0020FFF7EEFE8020FFF70BFA01217E
:100EA000032000F022F88020FFF70EFA1349C868EB
:100EB000C007C00FFBD011490120403188630220D8
:100EC00000F00CF80320FFF7E8FE0C4880300168C2
:100ED000012212041143016010BDD3E7084A1169D1
:100EE00089088900014311617047C006C00E890757
:100EF000490E0843014988607047000000800440A3
:100F000000C0034010B50446A148844201D10C2022
:100F100008E0A048844201D1132003E09E488442A7
:100F200002D1142000F02DF99C490120886108624B
:100F300048620720A0600320E0601020A06210BD7E
:100F4000964801680122120391430160704710B571
:100F50000346002003E00C781C60401C491C9042B2
:100F600002DA5C69A406F6D410BDF0B51546074652
:100F700000260C4607E02A4621463846FFF7E7FFE1
:100F80002D1A36182418002DF5DC3046F0BD10B5AA
:100F90000346002003E01C680C70401C491C904272
:100FA00002DA5C69E407F6D110BDF0B516460746D3
:100FB00000240D4607E0324629463846FFF7E7FF92
:100FC000361A24182D18B442F5DB2046F0BD70B552
:100FD0000E460446FFF7A2FE0546310100F087FCED
:100FE000010A0A02E668831A80221643E660DBB231
:100FF000C9B223606160E1689143E160014628461F
:1010000000F075FC70BD38B50D46044605E020685B
:1010100069460870284600F0CAF86069C007F6D132
:1010200038BD38B50D46044602E0684600782060B9
:101030006069800605D56946284600F012F9002847
:10104000F3D138BDFFB50446616881B01E46154630
:101050000220814361601A462946029800F0C0F8D8
:10106000074620460299FFF7DCFFF21BE9190298B8
:1010700000F0B6F8C019626802210A43626005B048
:10108000F0BD10B5144608461A46214600F002F994
:1010900010BD70B5044640680E46154680070BD556
:1010A00011462046FFF7BDFFE8682969884203D151
:1010B000616802208143616031462046FFF7A3FF4B
:1010C00070BDF3B585B00746012000900024801E56
:1010D00001940290FFF722FE01250390002624E0F0
:1010E0000699A819484304900398002301090007B2
:1010F0002A4600F005FA0023049A00F019FA0028A5
:1011000001DA4042491C029A82420DD300290BD0D9
:101110000A0C09D1032901D2002E05D10C460196F3
:1011200000950290002802D0761CAE42D8D30298D7
:101130006D1C002801D0102DD0D3002C1FD0F868D2
:1011400080221043F860E0B22104090E3860796013
:10115000F8689043F860009801990007000E0907AD
:10116000090F0843B86201990098009A4118039842
:1011700061430009504300F0BAFB07B0F0BD002006
:10118000FBE706490A68012383401A430A60704757
:101190000080004000000240004002408080044087
:1011A00082600AC00021816041600120704770B5F3
:1011B0000E460446056800F0ACF8002801D0002077
:1011C00070BD6168E068491E0840A268314650431E
:1011D000401900F02BFBE068401CE060012070BD6E
:1011E000F7B5054682B0006800901746284600F023
:1011F00090F8002802D0002005B0F0BDE868296909
:10120000401A69680C1AE8684B1E184003192246F8
:101210008B4200D30C1A161BBC4200DB3C46391B28
:101220008E4200DB0E46AA68009950434018624384
:10123000039900F0FBFAE8680019E8606968AA6899
:10124000491E08402968504340181146039B6143DA
:10125000C918724300F0EAFAE8688019E860A0193A
:10126000CAE770B50E460446056800F05CF8002831
:1012700001D0002070BD61682069491EA268084045
:1012800050434119304600F0D1FA2069401C2061DA
:10129000012070BDF7B5054682B000680090174682
:1012A000284600F040F8002801D00020A4E7E868B4
:1012B00029696A68441A2869531E1840031921468F
:1012C000934200D3141A0E1BBC4200DB3C46391B70
:1012D0008E4200DB0E46AA680099504341186243D3
:1012E000039800F0A3FA2869001928616968AA68C0
:1012F000491E08402968504341181046039B60432B
:10130000C018724300F092FA286980192861A01968
:1013100072E7C16802694068891A814201DB0120D5
:10132000704700207047C1680069814201D10120E7
:10133000704700207047000001B5012269465C48F3
:10134000FFF713FE08BD0020704710B5C0B2FFF7CD
:10135000F3FF002010BD08B5012269465448FFF78D
:1013600016FE012802D00020C04308BD6846007860
:1013700008BDF0E70020C043704730BFFDE710B55F
:10138000044602E0641CFFF7D7FF20780028F9D15B
:1013900010BD10B547480121A4228150A8228150D8
:1013A000434C2046FFF7AEFDE12149022046FFF7FE
:1013B0000EFE0320E0608120A0608020206310BD2D
:1013C000032808D23C4A3D4B125C01204140914029
:1013D0009040800019507047014610B50020032945
:1013E00006D23548425C05200121000700F04BF889
:1013F00010BD032808D230490A5C01202F499040D3
:1014000082008B5843408B507047F8B5FFF7C1FFFF
:1014100005200007FFF7A4FC0024274F284E0125D4
:10142000395D32682846884002433260E0B20021CC
:10143000FFF7C6FF641C032CF2D3F8BD10B50524DA
:10144000240704220121204600F027F80122002170
:10145000204600F022F810BD70B505252D070024A8
:1014600004220121284600F00EF8002800D10124B2
:1014700001220021284600F006F8002801D10220B0
:101480000443204670BD09040918012090408000E3
:101490000858002800D001207047090409180120CD
:1014A000C003081801680123934099430160704705
:1014B0000080004000400440402000000000015037
:1014C0000080015010B50B4801680122120411433D
:1014D00001600A2208490948FEF7D0FE10BD10B588
:1014E000FFF7D0FC10BD10B5FFF7ECFFFFF7CAFC0B
:1014F00010BD0000808004404820000000400440EF
:101500004343514330B55C18010C130C0D4692B2A5
:101510005D4380B251432C19054655430A0C09041A
:101520004D1962415843010C00044019514130BD2E
:10153000FEB5054610460C46184373D0AE468C46A1
:101540000020AD1A01469C4167D36646002701245E
:101550003D46B61A9D4102D313463A4621246546BC
:1015600076462F04360C3E432D0CB61A9D4104D30B
:10157000150C1B042B4312041034654676462F06C7
:10158000360A3E432D0AB61A9D4104D3150E1B029E
:101590002B4312020834654676462F0736093E4330
:1015A0002D09B61A9D4104D3150F1B012B431201BF
:1015B000241D65467646AF07B6083E43AD08B61A09
:1015C0009D4104D3950F9B002B439200A41C6546BC
:1015D0007646EF0776083E436D08B61A9D411AD34A
:1015E00092185B41641C16E0001876466546494136
:1015F000B71A9D410191009009D36046B11A9841F4
:101600008E468446009801990025401C6941DD07FB
:1016100052082A435B08641EE6D57246634603B04F
:10162000F0BDFFE700200146C046C0462A462346DB
:10163000F5E700000FB4054910B503AA029800F0C1
:101640008FFA10BC08BC04B018470000540000100A
:101650000FB41CB5074B06AA7B4469460090059859
:1016600000F04FFA0020694600F05EFA1CBC08BC8E
:1016700004B01847CD040000F8B50E46044600201B
:1016800020622046E1688847002829D0252802D01A
:101690006268A16820E0E1682046002788470500CD
:1016A0001ED028464138192802D80127FF022035CC
:1016B0003246204627602946FEF740FD002808D024
:1016C000012804D0F61DF608F6000836D9E7361DC5
:1016D000D7E762682846A1689047206A401CCFE798
:1016E000206AF8BD70B50C460546012A05D0287859
:1016F000800600D5EA69002302E0012305E05B1CB7
:10170000934202D2E05C0028F9D1A869E618C01A19
:10171000A861286AC01828622846C046C04604E06E
:101720006A682078A968641C9047B442F8D32846B8
:10173000C046C04670BD0000F7B500257529106889
:10174000009914A611D0C046C046002802DA4042D3
:1017500011A608E0009909688A0701D50FA602E0E2
:10176000490704D50EA6012501E0C046C046009FEA
:101770000024243704E000F03FFA30313955641C6E
:101780000028F8D12B4632462146009800F05CF93B
:10179000FEBD0000000000002D0000002B00000036
:1017A0002000000070B50646FEF7A0FD046805465F
:1017B00030460A22002100F0E7F92C6070BD30B5F8
:1017C00005460B462A461C781078521C5B1C0028E4
:1017D00001D0A042F7D0002C03D0002802D06D1C0D
:1017E000EFE7284630BD000030B5441C03E0017827
:1017F000401C00290DD08107F9D10B4BDD0104C835
:10180000D11A91432940FAD0001B0A0603D0C01E0A
:1018100030BD001B30BD0A0401D0801E30BD09025E
:10182000FCD0401E30BD000001010101F8B5042AC2
:101830002CD3830712D00B78491C0370401C521E16
:1018400083070BD00B78491C0370401C521E830782
:1018500004D00B78491C0370401C521E8B079B0F51
:1018600005D0C91ADF002023DE1B08C90AE0FEF7F5
:101870008FFCF8BD1D4608C9FD401C46B4402C43F2
:1018800010C0121F042AF5D2F308C91A521EF0D450
:101890000B78491C0370401C521EEAD40B78491C7B
:1018A0000370401C012AE4D409780170F8BD01E0FE
:1018B00004C0091F0429FBD28B0701D50280801CBC
:1018C000C90700D00270704700290BD0C30702D0AF
:1018D0000270401C491E022904D3830702D50280EE
:1018E000801C891EE3E70022EEE70022DFE70022EA
:1018F00003098B422CD3030A8B4211D300239C464D
:101900004EE003460B433CD4002243088B4231D3C4
:1019100003098B421CD3030A8B4201D394463FE058
:10192000C3098B4201D3CB01C01A524183098B42B8
:1019300001D38B01C01A524143098B4201D34B01A1
:10194000C01A524103098B4201D30B01C01A524104
:10195000C3088B4201D3CB00C01A524183088B428B
:1019600001D38B00C01A524143088B4201D34B0074
:10197000C01A5241411A00D20146524110467047E6
:101980005DE0CA0F00D04942031000D340425340EB
:1019900000229C4603098B422DD3030A8B4212D3AB
:1019A000FC22890112BA030A8B420CD389019211DD
:1019B0008B4208D3890192118B4204D389013AD01A
:1019C000921100E08909C3098B4201D3CB01C01AEF
:1019D000524183098B4201D38B01C01A5241430902
:1019E0008B4201D34B01C01A524103098B4201D3F0
:1019F0000B01C01A5241C3088B4201D3CB00C01A5D
:101A0000524183088B4201D38B00C01A5241D9D274
:101A100043088B4201D34B00C01A5241411A00D2F5
:101A20000146634652415B10104601D34042002BF1
:101A300000D54942704763465B1000D3404201B570
:101A40000020C046C04602BDFFB504460D4681B029
:101A5000243000902168880604D51022E069914363
:101A6000216000E00120A84201DD471B00E00027C3
:101A70000498A1697A191018081AA0612078C00684
:101A800002D42046C046C046002608E0039862689B
:101A9000A168805D9047206A401C761C20620498F3
:101AA0008642F3DB2078C0060AD52046C046C046F1
:101AB00006E06268A16830209047206A401C2062DE
:101AC00038467F1E0028F4DC07E000986268A168B1
:101AD000405D9047206A401C206228466D1E002809
:101AE000F3DC2046C046C0462078000602D502201E
:101AF00005B0F0BD0120FBE701694A1C02610878CE
:101B0000704700B58FB002910021059105490193FE
:101B100079440391114604906846FFF7ADFD0FB07C
:101B200000BD0000E5FFFFFF0A681070521C0A604C
:101B3000704710B54369002B02D0C046C04601E093
:101B4000FFF7D0FD012010BD1278014624310A7044
:101B500000224A700122ECE711680022D243E8E734
:101B6000084B70B50D467B44FFF7CBFF0446284673
:101B7000FFF700FC002802D00020C04370BD2046C3
:101B800070BD0000E1F7FFFFF7B50F460026009C8F
:101B90002578641C002D05D000F042F80068405DF7
:101BA000C007F5D12B2D02D02D2D18D0641E39463B
:101BB000029A204600F03CF8002F04D03968A14278
:101BC00001D1009939607105022400290BDA4042E5
:101BD000002803DDFEF78AFB0460A007FEBD01209C
:101BE00080020643E3E70028F8DAFEF77FFB046093
:101BF0000048FEBDFFFFFF7F01468008081A02096A
:101C00001018020A1018020C1018C00882001218CE
:101C10005200891A01E0401C0A390A29FBD2704798
:101C200010B500F077F8001D10BD00BFA90100003D
:101C3000F7B5154682B00027029C2078641C0197F6
:101C4000302802D0002D15D015E020780127641C23
:101C5000782804D0582802D0002D09D00BE0002DA0
:101C600001D0102D07D1207800271025641C02E038
:101C7000082500E00A250026009610E000990127BB
:101C80006943081829467143020C80B200908E18EF
:101C90003804864201D3012001902078641C294633
:101CA00000F03CF80028E9DA0398002805D0002F5E
:101CB00001D0641E00E0029C04600198002806D058
:101CC000FEF714FB02210160C81E05B0F0BD0099AB
:101CD00030040843F9E77546FEF70CFBAE460500F5
:101CE00069465346C008C000854618B020B5FEF7C7
:101CF0007BFA60BC00274908B6460026C0C5C0C5AF
:101D0000C0C5C0C5C0C5C0C5C0C5C0C5403D4900EF
:101D10008D46704700487047440500103A2800D2AD
:101D20003038202302469A43412A01D310463738DF
:101D3000884201D30020C043704710B50446C04616
:101D4000C0462046FEF71DFA10BD0000024670B5E1
:101D50000A4392072AD11E4DEE0104C808C9541B3C
:101D60009443344017D0D0B2D9B2401A210601436F
:101D700010D190B299B2401A210401430AD1100245
:101D80001902000A090A401A2102014302D1100E69
:101D9000190E401A70BD9A42DFD010BA19BA8842A3
:101DA00001D9012070BD0020C04370BD02780B78BE
:101DB000401C491C002A09D09A4207D102780B78AE
:101DC000401C491C002A01D09A42EFD0D01A70BDA5
:101DD0000101010110B500290AD00878002807D0B8
:101DE00005487844FFF7B2FF002801D0002010BD5D
:101DF0000248784410BD00009E03000096030000D6
:101E00000000C1C081C1400101C3C003800241C2C2
:101E100001C6C006800741C70005C1C581C4400492
:101E200001CCC00C800D41CD000FC1CF81CE400E42
:101E3000000AC1CA81CB400B01C9C009800841C852
:101E400001D8C018801941D9001BC1DB81DA401AC2
:101E5000001EC1DE81DF401F01DDC01D801C41DC92
:101E60000014C1D481D5401501D7C017801641D6C2
:101E700001D2C012801341D30011C1D181D04010D2
:101E800001F0C030803141F10033C1F381F24032C2
:101E90000036C1F681F7403701F5C035803441F492
:101EA000003CC1FC81FD403D01FFC03F803E41FE42
:101EB00001FAC03A803B41FB0039C1F981F8403852
:101EC0000028C1E881E9402901EBC02B802A41EAC2
:101ED00001EEC02E802F41EF002DC1ED81EC402C92
:101EE00001E4C024802541E50027C1E781E64026C2
:101EF0000022C1E281E3402301E1C021802041E0D2
:101F000001A0C060806141A10063C1A381A24062C1
:101F10000066C1A681A7406701A5C065806441A491
:101F2000006CC1AC81AD406D01AFC06F806E41AE41
:101F300001AAC06A806B41AB0069C1A981A8406851
:101F40000078C1B881B9407901BBC07B807A41BAC1
:101F500001BEC07E807F41BF007DC1BD81BC407C91
:101F600001B4C074807541B50077C1B781B64076C1
:101F70000072C1B281B3407301B1C071807041B0D1
:101F80000050C190819140510193C05380524192C1
:101F90000196C056805741970055C1958194405491
:101FA000019CC05C805D419D005FC19F819E405E41
:101FB000005AC19A819B405B0199C0598058419851
:101FC0000188C04880494189004BC18B818A404AC1
:101FD000004EC18E818F404F018DC04D804C418C91
:101FE0000044C184818540450187C04780464186C1
:101FF0000182C042804341830041C18181804040D1
:1020000000000000C027090090051000C05C15000A
:10201000F0B31A00200B2000009F2400E0322900BA
:10202000C0C62D0050973100E06735007038390088
:1020300000093D004016400080234300C0304600A8
:1020400001020400001BB7000401000007010000AA
:102050000C0100000D0100001F0100002001000024
:10206000250000001B000000290100002A010000DB
:10207000535720417574682044656D6F0D0A000048
:10208000617574686F72697A6174696F6E207265C8
:1020900071756573740D0A0054435020434C4F53BF
:1020A0004544000055445020434C4F5345440000E4
:1020B000495020434F4E4649470000005345525671
:1020C0004552204C495354454E494E4700000000AC
:1020D00054435020434C4F53494E470055445020E1
:1020E000434C4F53494E470049502050524F4345AF
:1020F0005353494E4700000054435020434F4E4E27
:10210000454354494E47000055445020434F4E4EDE
:10211000454354494E470000434F4E4E45435420DB
:102120004F4B0000495020494E495449414C000052
:1021300049502053544154555300000050445020FE
:1021400044454143540000004950204750525341F8
:1021500043540000495020535441525400000000A1
:102160009022000000000010580000000401000050
:10217000E822000058000010300800002001000094
:102180001001000043000000F8FFFFFF0040404046
:10219000404040404040414141414140404040403A
:1021A00040404040404040404040404040050202E6
:1021B00002020202020202020202020202202020A5
:1021C0002020202020202002020202020202909001
:1021D00090909090101010101010101010101010FF
:1021E0001010101010101010020202020202888853
:1021F000888888880808080808080808080808085F
:102200000808080808080808020202024000000046
:1022100000000000000000000000000000000000BE
:1022200000000000000000000000000000000000AE
:10223000000000000000000000000000000000009E
:10224000000000000000000000000000000000008E
:10225000000000000000000000000000000000007E
:10226000000000000000000000000000000000006E
:10227000000000000000000000000000000000005E
:10228000000000000000000000000000000000004E
:1022900000000000000000000000000070200000AE
:1022A000802000002421000054210000B020000004
:1022B0004821000030210000E82000003C210000FF
:1022C000F820000008210000BC20000018210000B8
:1022D000D0200000DC20000098200000A420000096
:0822E0000000000000000000F6
:04000005000000C136
:00000001FF
