:020000040000FA
:10000000980C0010F901000001020000030200003A
:1000100005020000070200000902000000000000C5
:100020000000000000000000000000000B020000C3
:100030000D020000000000000F0200003D03000060
:100040001502000015020000150200001502000054
:100050001502000015020000150200001502000044
:100060001502000015020000150200001502000034
:100070001502000015020000150200001502000024
:100080001502000015020000150200001502000014
:100090001502000015020000150200009303000085
:1000A00015020000150200001502000013020000F6
:1000B00015020000150200001502000015020000E4
:1000C00000F002F800F06CF80CA030C808382418D2
:1000D0002D18A246671EAB4654465D46AC4201D180
:1000E00000F05EF87E460F3E0FCCB6460126334246
:1000F00000D0FB1AA246AB463343184750660000B7
:1001000070660000103A02D378C878C1FAD8520756
:1001100001D330C830C101D504680C6070470000BD
:100120000023002400250026103A01D378C1FBD813
:10013000520700D330C100D50B60704710B5662957
:1001400002D106F063F810BD652902D106F05EF811
:1001500010BD642902D102F0D1FF10BD782902D16F
:1001600003F002F810BD732902D104F0EDF810BDC0
:10017000002010BD1FB50098019903F014FE04F093
:10018000E7FB04000020002105F07CFF401C6060BC
:100190000020002105F08CFFE0601FBD10B510BDF0
:1001A00005F03BF81146FFF7E5FF00F07BFA05F09C
:1001B00062F803B4FFF7F2FF03BC01F092FA00000B
:1001C00070B505460C46164602E00FCC0FC5103E32
:1001D000102EFAD2082E02D303CC03C5083E042EFB
:1001E00007D301CC01C5361F03E021782970641CB8
:1001F0006D1C761EF9D270BD0A4880470A48004738
:10020000FEE7FEE7FEE7FEE7FEE7FEE7FEE7FEE7C6
:10021000FEE7FEE7FEE7000004480549054A064BF5
:10022000704700003D020000C10000009809001066
:10023000980C0010980A0010980A001010B501F0F0
:1002400006FB10BD0B0A51400906C90D405A584023
:1002500070470A4601460F48F4E770B5054600208E
:100260000E46044604E029786D1CFFF7F2FF641C7B
:10027000B442F8D370BD70B505460E46064800245A
:1002800004E029786D1CFFF7E4FF641CB442F8D346
:1002900070BD00001C620000FFFF000010B500F000
:1002A000DCFE0149086010BD5800001030B5002385
:1002B00006E09C000C592506240AAD0D44515B1C38
:1002C0009342F6D330BD4343514330B55C18010C23
:1002D000130C0D4692B25D4380B251432C19054672
:1002E00055430A0C09044D1962415843010C00049E
:1002F0004019514130BD704770477047FFFFFFFF05
:10030000FF228307DB0E9A408907090E99400028D7
:100310000BDA0007000F08388308FF489B00181805
:10032000C36993430B43C36170478308FB489B0039
:100330001B181868904308431860704770B5F84D53
:100340007D21C900686803F0FCF82C4610340126B2
:1003500000290BD1A868401CA8602068022805D19C
:10036000A068401CA0600F2800DD2660FF21F53149
:10037000686803F0E6F8002900D12E70E949686842
:1003800003F0DFF8002900D126716868401C68601E
:1003900070BDE54A10B511461431E44801F02DF85E
:1003A00010BD7FB500F00CFD002803D00020C04335
:1003B00004B070BDDE4800F089FB042462262546A7
:1003C000F643002000F026FC002802D06D1EF8D174
:1003D00014E0002D12D02546012000F029FC002851
:1003E00002D06D1EF8D109E0002D07D0254600F09F
:1003F000D8FB002804D06D1EF9D10AE03046D7E7BB
:10040000002D06D000F0B6FB0A2805DA0220C04312
:10041000CEE70120C043CBE700F055FC012802D015
:10042000641EF9D108E0002C06D000F0C5FC0028BD
:1004300005D00420C043BBE70320C043B8E7BDA0FC
:1004400000F0D5FB002802D00520C043B0E700F043
:1004500051FC002802D00620C043A9E7684600F0FE
:100460004DFC002802D00720C043A1E76946B3A095
:1004700002F0D2FD00209BE700B587B01822B1A1A1
:100480006846FFF79DFEB54AB5A1B9A000F0DEFBB6
:10049000002803D00820C04307B000BD684602F022
:1004A0007DFF81B2684600F064FC0028F4D009208A
:1004B000C043F1E710B59A480178002904D0002123
:1004C0000170012001F049F910BD10B50C46010082
:1004D00014D000200A5C2254401C2228FADB202180
:1004E0002046FFF7BAFE20346178227809021143D2
:1004F00049BA884205D00120C04310BD0020C04346
:1005000010BD0020207010BD10B50B460246864974
:10051000864800F04BFF10BD834910B51431CA68FE
:100520000969531A002B01DC002010BD7E490246E8
:1005300014317E4800F059FF10BD10B58D490520DB
:100540000A68000708231A430A60032201231146A0
:1005500000F0DFF910BD034610B503220520114657
:10056000000700F0D6F910BDF8B58349834802F0C2
:10057000E6FF8248FFF7D0FF041E02DC0020C043E4
:10058000F8BD022000F0A2FA7C480019FFF7C4FF72
:1005900006197BA1794802F0C6FE05000CD06C1D3F
:1005A000204602F0A9FE07462078641C3A28FBD1B9
:1005B0001E20651B00900AE00120C043F8BD6F4873
:1005C0008019FFF7A9FF8619012000F07FFA701B40
:1005D000B84204DA0098401E0090401CEFD1701B16
:1005E000B84202DA0220C043F8BD4F480121490257
:1005F000283002F0A4FF4C483A462146283002F049
:100600003FFF3846F8BD70B501F0DDFD04001ED097
:100610005DA102F019F900281BD05DA1204602F06F
:1006200013F9002815D058A1204602F00DF94669AB
:1006300057A1204602F008F9456931462A4657A0DD
:1006400002F0EAFC364B1033012E06D007E059A029
:1006500000E05DA002F0E0FC70BD642D03D001203D
:1006600018605DA00CE0186802280FD198680F2868
:100670000CDA002018605979012900D158715CA06A
:1006800002F0CAFC204601F027F970BD5EA0F7E732
:1006900000F06BFA002803D061A002F0BDFCFEE779
:1006A00062A0FAE7FFF7FAFD01F063F8FFF745FFF4
:1006B00060487D21C900006802F043FF5E490025C3
:1006C000401E884208D85D4C60610321081FFFF777
:1006D00017FEA56107202061E1214902134800F0BF
:1006E00020F9114801235B0201225549143000F022
:1006F0000BFFFF230133012252490B4800F004FF96
:100700000748C16850A002F087FC07490F20243930
:100710000003FFF7DAFE99E000ED00E000E400E0FE
:100720000000001060EA000090000010004002404D
:10073000B80B0000434D4E455400000049503A2587
:10074000730D0A00617574686F72697A6174696FFC
:100750006E20726571756573740D0A00567A00001B
:100760006F72616E67652E35353535352E696F00D0
:100770005443500000800350FF010000B8060010F1
:100780002B4950442C00000061706949640000004E
:1007900072657370436F64650000000061706949A1
:1007A000643A25642C72657370436F64653A2564FE
:1007B0000D0A00006E6F206A736F6E20666F726D97
:1007C00061740D0A000000006C61636B206F66208D
:1007D0006974656D210D0A00417574686F72697ADC
:1007E0006174696F6E206661696C65640D0A000052
:1007F000417574686F72697A6174696F6E20706197
:1008000073730D0A00000000417574686F72697A95
:100810006174696F6E206572726F720D0A0000005C
:100820004641494C45440D0A0000000050415353D5
:100830000D0A000058000010FFFFFF0000E000E07C
:10084000B8030010B80500102573000000280AD076
:1008500054A002F0E1FBFFF7A4FD010008D056A070
:1008600002F0DAFBFEE75B495BA002F0D5FBF2E7A2
:100870005DA002F0D1FB6349614A0846103000F0E8
:10088000E5F9002803D060A002F0C6FBFEE766A0F1
:1008900002F0C2FB694C6A4E2079012818D169A088
:1008A00002F0BAFB25710220A5602060494B0122AD
:1008B00069A1304602F0BEFB304602F06FFD81B206
:1008C000304600F056FA002810D069A002F0A4FBD0
:1008D000FFF74AFE011E0EDD3E4A69A04C3202F0CF
:1008E0009BFB3C484C30FFF78EFE09E031466AA086
:1008F00002F092FBECE7C11C02D16AA002F08CFB73
:1009000020680128C8D060790028C5D1FFF7D2FD42
:10091000C2E79340090409180120904080000B5061
:100920007047F3B50446644D6448654E654F81B029
:10093000AC4204D11121A4228150A82205E0B44286
:1009400005D11321C8228150C422815005E0BC4248
:1009500027D11321C02281508161204600F086FCFE
:100960002046029900F0E7FC0320E0608120A060AF
:10097000802121636168052001436160AC4201D19F
:10098000152406E0B44201D1162402E0BC4200D195
:10099000172401212046FFF7B3FC01204A49A0405B
:1009A0000860FEBD67657420756964206661696CC6
:1009B00065640D0A000000004750525320536574CF
:1009C0007570206661696C65642C7265743D256480
:1009D0000D0A00006C000010676574207569643AA8
:1009E00025730D0A000000004750525320686164CF
:1009F000206265656E2073657475700D0A000000D5
:100A0000567A0000600700004661696C65642074D6
:100A10006F20636F6E6E65637420746F20736572F0
:100A20007665720D0A000000436F6E6E6563742078
:100A3000746F207365727665720D0A0010000010E5
:100A4000B8020010417574686F72697A696E672E1A
:100A50002E2E210D0A0000007B226170694964225C
:100A60003A25642C22554944223A222573227D00DE
:100A700053656E64206661696C65640D0A00000050
:100A800072656369657665642025642062797465A2
:100A9000732C25730D0A000053656E643A2025738C
:100AA0000D0A00005265636965766564206572729F
:100AB0006F72210D0A0000000080004000400440D9
:100AC000000002400040024000E100E0CF4A06E0A2
:100AD00000BF00BF114600BF491E0029FBDC401EBD
:100AE000F6D2704706E000BF00BF032100BF491ED9
:100AF0000029FBDC401EF6D27047F7B500241646ED
:100B000007462546002810D0019800280DD0012165
:100B10004902BF4802F011FD384602F03FFC014691
:100B20003846FFF7F1FCBA4F0EE00020C043FEBD8F
:100B30007819FFF7F1FC002802DD00242D1800E0F1
:100B4000641C0120FFF7C2FFB442F1D3B049B1A049
:100B500002F062FAAE48019902F0E5FB002801D0EC
:100B60000020FEBD0120C043FEBD7D22D200ACA10D
:100B7000ACA0C2E710B57D22D200A9A1AAA0FFF7C0
:100B8000BCFF0024E443002809D1A9A1A04802F039
:100B9000CAFB002803D0801D02F0AEFB10BD20462A
:100BA00010BD7D22D200A4A1A7A0A6E770B57D222A
:100BB000D2009BA1A7A0FFF7A0FF0026F6430028C4
:100BC00013D1A8A1924802F0AEFB00280DD0A74D8A
:100BD0000024A00029588E4802F0A5FB002801D06F
:100BE000204670BD641C0F2CF3DB304670BD10B581
:100BF00000280CD003469EA2A0A1A24802F01AFA37
:100C00007D22D20086A19F48FFF777FF10BD00200C
:100C1000C04310BD10B503469BA29CA1994802F0A9
:100C200009FA7D22D2007EA19648FFF766FF10BD2B
:100C300010B5034697A295A1924802F0FBF97D22D8
:100C4000D20077A18F48FFF758FF10BD1CB50024D4
:100C5000E443002819D0002917D0034601920091DF
:100C60008FA293A1874802F0E5F9954A6CA18548C7
:100C7000FFF743FF002808D17C48816A644802F0EE
:100C800052FB002801D000201CBD20461CBD7D2247
:100C9000D2008CA18EA030E710B57D22D20060A1D9
:100CA0008EA0FFF72AFF0024E443002809D18EA17B
:100CB000574802F038FB002803D00A3002F01CFB32
:100CC00010BD204610BD10B57D22D20054A189A0D0
:100CD000FFF713FF0024E443002809D188A14C4802
:100CE00002F021FB002803D0083002F005FB10BD04
:100CF000204610BD854A4AA185A0FEE6F8B500252C
:100D00006F1E06462C46002817D07D22D20050A127
:100D100082A0FFF7F2FE3E4900280ED108E002460D
:100D2000303A092A01D92E2801D13055641C6D1C96
:100D3000485D0028F3D1002C01DC3846F8BD0020C6
:100D40003055F8BD10B57D22D20035A176A0FFF751
:100D5000D4FE0024E443002809D177A12C4802F0F6
:100D6000E2FA002803D00A3002F0C6FA10BD20468D
:100D700010BDF8B50024671E0D460646002807D0B2
:100D80007D22D2006FA170A0FFF7B7FE002801D02E
:100D90003846F8BD3B4802E0315D0155641CAC4269
:100DA000FADB1A214155002140194170574A69A1C7
:100DB0003448FFF7A2FEF8BD544A68A169A09CE63A
:100DC00010B50524FFF7D1FE002814D00020FFF74E
:100DD000C2FB7D200001FFF779FE03E0FFF7C5FEAF
:100DE000002809D02046641E0028F7DC0120FFF708
:100DF000B2FB0020C04310BD0120FFF7ACFB002078
:100E000010BD7D22D2005AA15EA076E6BE1200007F
:100E1000B8060010726563763A25730D0A0000006B
:100E20004F4B000041540D0041542B4353510D00D2
:100E30002B4353513A2000002B4350494E3A205245
:100E4000454144590000000041542B4350494E3F56
:100E50000D00000041542B43495053544154555305
:100E60000D00000053544154453A00001C0000108E
:100E700041542B435354543D000000002573222558
:100E800073220D00B80800104154450025732564F5
:100E90000D00000041542B434950484541443D005A
:100EA00041542B43495053544152543D00000000DB
:100EB0002573222573222C222573222C25640D00F4
:100EC00010270000434C4F5345204F4B00000000BB
:100ED00041542B4950434C4F53450D0041542B4333
:100EE000475245473F0D00002B43475245473A20A4
:100EF0000000000041542B43474154543F0D000073
:100F00002B43474154543A2000000000B80B000026
:100F100041542B43494943520D00000041542B4397
:100F2000494653520D00000041542B43495053454C
:100F30004E443F0D000000002B43495053454E44A2
:100F40003A2000003E00000041542B4349505345D5
:100F50004E440D0053454E44204F4B0053485554CA
:100F6000204F4B0041542B434950534855540D00DA
:100F70004E4F524D414C20504F57455220444F57F1
:100F80004E00000041542B43504F57443D310D005B
:100F90003649086000204860012048607047002200
:100FA000002800D00122002901D0022002432F484E
:100FB0004038026270472D490863002048630120D1
:100FC00048637047294A8032106100205061012037
:100FD000506191617047254A803210620020506252
:100FE0000120506291627047204810B54038406A35
:100FF000C1050A0FC006810E90001D4A891C1058B9
:1010000002F09FFA10BD194800688007800F03D0D6
:10101000012803D000207047164870471648006822
:101020007047124800B540388168FFF7ECFFC906E9
:10103000C90E491C484300BD0C490020096B8907B3
:10104000890F06D0012906D0022905D0032901D134
:10105000E7E708487047D6E7C6E710B5FFF7ECFFAB
:101060000249896B02F06DFA10BD00004080044017
:101070001C640000001BB700606400003248016877
:1010800040221143016070472F480168402291437C
:101090000160704730B50125ED0301249440090437
:1010A000081840190168002B01D0214300E0A1433A
:1010B000016030BD10B501240904E40308180019CB
:1010C0000168002B01D0114300E09143016010BD85
:1010D000090408180121C903401801219140026840
:1010E000002B01D00A4300E08A43026070470904E4
:1010F00008180121C90340180168002B01D01143D1
:1011000000E091430160704710B501249440090448
:1011100008180121C90340189A074168002A09DA12
:10112000A14341605907816801D5214300E0A143F3
:10113000816001E021434160D907C16801D02143AA
:1011400000E0A143C16010BD8080044048210840F8
:101150000F4940180F4908637047ED21C0B20902DA
:1011600040180C49486370470A498A6BC0B2D2B232
:101170001043ED221202104388637047054A916BB9
:10118000C0B2C9B28143ED200002014391637047B0
:10119000B71800000082044008B52020FFF7EEFFDA
:1011A00000200090012040020099491C00918142DA
:1011B000FADB0120FFF7ECFE8020FFF7D5FF0121CD
:1011C000032000F046F88020FFF7D8FF2548C168CB
:1011D000C907C90FFBD02349012040318863022091
:1011E00000F030F80320FFF7E6FE08BD10B502203E
:1011F000FFF7C4FF0120FFF7C1FF0020FFF7C8FE83
:101200008020FFF7B1FF0121032000F022F88020A9
:10121000FFF7B4FF1349C868C007C00FFBD01149DE
:10122000012040318863022000F00CF80320FFF712
:10123000C2FE0C4880300168012212041143016093
:1012400010BDD3E7084A116989088900014311617B
:101250007047C006C00E8907490E084301498860DF
:10126000704700000080044000C0034010B50446F1
:10127000A148844201D10C2008E0A048844201D159
:10128000132003E09E48844202D1142000F02DF97F
:101290009C4901208861086248620720A060032001
:1012A000E0601020A06210BD964801680122120380
:1012B00091430160704710B50346002003E00C78AD
:1012C0001C60401C491C904202DA5C69A406F6D4FA
:1012D00010BDF0B51546074600260C4607E02A4625
:1012E00021463846FFF7E7FF2D1A36182418002D3F
:1012F000F5DC3046F0BD10B50346002003E01C6865
:101300000C70401C491C904202DA5C69E407F6D17B
:1013100010BDF0B51646074600240D4607E03246DC
:1013200029463846FFF7E7FF361A24182D18B4422D
:10133000F5DB2046F0BD70B50E460446FFF77CFE97
:101340000546310102F0FDF8010A0A02E668831A37
:1013500080221643E660DBB2C9B223606160E168B7
:101360009143E1600146284602F0EBF870BD38B5C4
:101370000D46044605E0206869460870284600F0DE
:10138000CAF86069C007F6D138BD38B50D460446C5
:1013900002E06846007820606069800605D56946ED
:1013A000284600F012F90028F3D138BDFFB50446F5
:1013B000616881B01E4615460220814361601A466D
:1013C0002946029800F0C0F8074620460299FFF728
:1013D000DCFFF21BE919029800F0B6F8C019626848
:1013E00002210A43626005B0F0BD10B514460846FC
:1013F0001A46214600F002F910BD70B50446406857
:101400000E46154680070BD511462046FFF7BDFF57
:10141000E8682969884203D16168022081436160DC
:1014200031462046FFF7A3FF70BDF3B585B00746F0
:10143000012000900024801E01940290FFF7FCFD23
:1014400001250390002624E00699A819484304903A
:1014500003980023010900072A46FEF734FF002302
:10146000049A01F04AFD002801DA4042491C029A20
:1014700082420DD300290BD00A0C09D1032901D2D5
:10148000002E05D10C46019600950290002802D04E
:10149000761CAE42D8D302986D1C002801D0102DC6
:1014A000D0D3002C1FD0F86880221043F860E0B23F
:1014B0002104090E38607960F8689043F86000985C
:1014C00001990007000E0907090F0843B862019946
:1014D0000098009A4118039861430009504302F0B4
:1014E00030F807B0F0BD0020FBE706490A68012389
:1014F00083401A430A6070470080004000000240A9
:10150000004002408080044082600AC00021816067
:1015100041600120704770B50E460446056800F032
:10152000ACF8002801D0002070BD6168E068491E59
:101530000840A26831465043401901F0A1FFE0681D
:10154000401CE060012070BDF7B5054682B0006820
:1015500000901746284600F090F8002802D000209E
:1015600005B0F0BDE8682969401A69680C1AE86896
:101570004B1E1840031922468B4200D30C1A161B2F
:10158000BC4200DB3C46391B8E4200DB0E46AA689B
:101590000099504340186243039901F071FFE868D5
:1015A0000019E8606968AA68491E08402968504324
:1015B00040181146039B6143C918724301F060FF54
:1015C000E8688019E860A019CAE770B50E460446BD
:1015D000056800F05CF8002801D0002070BD61684B
:1015E0002069491EA268084050434119304601F065
:1015F00047FF2069401C2061012070BDF7B50546FA
:1016000082B0006800901746284600F040F8002895
:1016100001D00020A4E7E86829696A68441A2869AB
:10162000531E184003192146934200D3141A0E1B6F
:10163000BC4200DB3C46391B8E4200DB0E46AA68EA
:101640000099504341186243039801F019FF28693B
:10165000001928616968AA68491E08402968504332
:1016600041181046039B6043C018724301F008FF05
:10167000286980192861A01972E7C1680269406869
:10168000891A814201DB0120704700207047C16840
:101690000069814201D1012070470020704700009D
:1016A00001B5012269465C48FFF713FE08BD002022
:1016B000704710B5C0B2FFF7F3FF002010BD08B5AA
:1016C000012269465448FFF716FE012802D0002087
:1016D000C04308BD6846007808BDF0E70020C0435D
:1016E000704730BFFDE710B5044602E0641CFFF709
:1016F000D7FF20780028F9D110BD10B54748012147
:10170000A4228150A8228150434C2046FFF7AEFD11
:10171000E12149022046FFF70EFE0320E060812010
:10172000A0608020206310BD032808D23C4A3D4BB6
:10173000125C012041409140904080001950704758
:10174000014610B50020032906D23548425C052029
:101750000121000700F04BF810BD032808D23049E2
:101760000A5C01202F49904082008B5843408B50E7
:101770007047F8B5FFF7C1FF05200007FFF77EFCB3
:101780000024274F284E0125395D326828468840BD
:1017900002433260E0B20021FFF7C6FF641C032C55
:1017A000F2D3F8BD10B505242407042201212046F8
:1017B00000F027F801220021204600F022F810BD99
:1017C00070B505252D07002404220121284600F0CC
:1017D0000EF8002800D1012401220021284600F043
:1017E00006F8002801D102200443204670BD0904F8
:1017F00009180120904080000858002800D00120DE
:101800007047090409180120C00308180168012362
:1018100093409943016070470080004000400440BD
:101820005C640000000001500080015010B50B48BE
:10183000016801221204114301600A220849094883
:10184000FEF734FD10BD10B5FFF7D0FC10BD10B58C
:10185000FFF7ECFFFFF7CAFC10BD000080800440DA
:101860006464000000400440F8488068704770B528
:1018700005000C4602D0002C02D009E0002901D05E
:10188000012070BD002070BD0028FCD0641C6D1CC0
:10189000287801F0B3FB0646207801F0AFFB8642C2
:1018A0002878F1D001F0AAFB0546207801F0A6FBCC
:1018B000281A70BDE549002803D00268002A04D127
:1018C00002E0E348086004E0E14A0A60406800285A
:1018D00000D1E0484860704770B50446DB4E1CE01C
:1018E000A0892568C0050CD4A068002804D0FFF7A3
:1018F000F3FFA089C00504D42069002801D07168D5
:101900008847A089800504D4206A002801D0716826
:1019100088477168204688472C46002CE0D170BD6E
:10192000F3B58BB000250C46CB49012002950695F6
:1019300003950791059020782E462F462D2804D137
:101940000020C649641C079106902078302800D1F9
:10195000641C20783138082816D82078641C303868
:1019600002F09FF8099108900022BD4B28463146AD
:1019700002F0A2F8099B089A02F00CF805462078BC
:101980000E4630380928E8D920782E2824D16078EE
:1019900030283ED339283CD8641C2078641C303869
:1019A00002F07FF8099108900022AD4B284631469D
:1019B00002F082F8099B089A01F0ECFF05460E46FA
:1019C0000022A54B3846039901F0F1FF0746039129
:1019D000207830380928E0D92078652801D04528BA
:1019E00017D16078641C2B2802D02D280DD000E080
:1019F000641C20780146303909290AD802990A2244
:101A00005143401830380290F2E70020C04305905F
:101A1000EEE705990298484302F043F83A46039BE3
:101A200001F0B8FF02460B4600208D4903F008FE86
:101A30000F4604902A4633460799069802F03CF870
:101A40003B46049A02F038F80B9AD161906101F09C
:101A5000D1FF0B9948610B980821C16020460DB059
:101A6000F0BDF8B5040009D02368002B06D0A268A9
:101A700050186168814203DB9818F8BD0020F8BD5A
:101A8000401E411001438810084301110143081210
:101A9000084305146D4F05436D1C39682846884777
:101AA00006000BD006CC083C01F0EAFC79682068FF
:101AB000884726606560A0688019F8BD796820684D
:101AC0008847002060602060D8E7F8B58469C56960
:101AD0000E460746002213462046294604F0FEFA29
:101AE00011D1002E04D002213046FFF7BAFF03E0E7
:101AF0005649022009688847060074D030203070AB
:101B0000002070706FE0786901F0CBFF22462B4611
:101B100001F04DFF490049080022524B04F010FB30
:101B20001FD8514A514B2046294604F009FB18D8CA
:101B300000224F4B2046294604F034FB11D8002EDA
:101B400004D015213046FFF78CFF03E03F491520F4
:101B500009688847060046D046A17A6901F06AFA0A
:101B600041E0002E04D040213046FFF77AFF03E029
:101B70003649402009688847060034D02046294667
:101B800003F0FAFC22462B4601F011FF49004908F8
:101B90000022344B04F0D4FA0BD8690020464908DF
:101BA000354A364B04F0CCFA03D222462B4634A1F8
:101BB00016E06900490820460F46334A334B04F0CB
:101BC000BFFA06D3204639460022314B04F0EAFA28
:101BD00003D222462B462FA102E022462B462EA1FD
:101BE000304601F027FA3046F8BD01780A46303A0F
:101BF000092A01D811460AE00A46413A052A01D8C5
:101C0000373904E00A46613A052A68D857390A018B
:101C10004178401C0B46303B092B01D8303A0AE092
:101C20000B46413B052B01D8373A04E00B46613B9C
:101C3000052B54D8573A89180A014178401C0B46A5
:101C4000303B092B2AD8303A33E000006000001006
:101C50004D2E0000AF2E00000000F03F0000F0BF4E
:101C6000000024400000B03C0000C0FFFFFFDF4147
:101C70000000E0C12564000044F3C2E4E4E9634CE1
:101C8000252E3066000000008DEDB5A0F7C6B03EF1
:101C900065CDCD4125650000256600000B46413B22
:101CA000052B01D8373A04E00B46613B052B16D8CB
:101CB000573A8918407809010246303A092A01D872
:101CC000303904E00246413A052A02D83739401833
:101CD00070470246613A052A01D85739F7E70020D4
:101CE0007047FEB50D464E1C044609780020174685
:101CF000222905D0156016E0761C5C2900D1761CDF
:101D00003178222903D0002901D0401CF4D1F749B1
:101D1000401C09688847010005D010202161E0605F
:101D2000681C0C46A5E00020FEBD01785C2903D0AC
:101D30002170401C641C9CE0401C019000787228BB
:101D400014D006DC622809D0662809D06E2808D194
:101D50000AE074280CD0752803D10BE0082000E0BD
:101D60000C202070641C82E00A20FAE70D20F8E7BE
:101D70000920F6E70198401CFFF737FF0090019813
:101D8000001D0190B04228D2372100988902411AE3
:101D9000D748814221D9009900291ED01B22D202A6
:101DA000891A814225D80198801DB04215D8019822
:101DB00040785C2811D10198807875280DD1019860
:101DC000C01CFFF712FF01990122891D01913721E3
:101DD0008902411A9202914201D33D60A3E7009922
:101DE00080058905090B800D0143012000040818B6
:101DF000009000990420802902D20120641C2FE069
:101E00000122D202914202D20220A41C07E0012248
:101E10001204914202D20320E41C0FE0241D022888
:101E200015D003280AD0042820D180221143BF22D4
:101E30001140641E2170009989090091802211438C
:101E4000BF221140641E21700099890900918022EF
:101E50001143BF221140641E21700099890900912D
:101E6000A449009A095C1143641E2170241801984A
:101E7000401CB04200D258E700212170017822298D
:101E800000D051E7401CFEBDF8B504469748002538
:101E90000F4602682946002C01D0204619E0002F89
:101EA00004D003213846FFF7DCFD01E00320904712
:101EB000040054D090A101F04BFA2046F8BD5E1EFC
:101EC0001F2E0DD3222B0BD05C2B09D000231943DE
:101ED000401C0378002BF2D1002903D0264627E0CE
:101EE0000123F4E7061B002F04D0F11C3846FFF74E
:101EF000B8FD01E0F01C9047050030D0222028708A
:101F0000681C0746214601F023FA2220B85500201C
:101F1000B91948704EE0014678A001F0FAF900289E
:101F200001D06D1C03E00098202800D26D1D761CA6
:101F300030780090002801D06D1CECD1002F04D027
:101F4000E91C3846FFF78DFD03E06849E81C096885
:101F50008847050003D022260670681C25E0002073
:101F6000F8BD1F2907D9222905D05C2903D00170AB
:101F7000401C641C19E05C210170401C2278641C28
:101F800007460C2A1FD006DC082A1AD0092A20D0BE
:101F90000A2A06D119E00D2A19D0222A0ED05C2A6D
:101FA0000AD058A101F046F8781D21780029D8D12F
:101FB000067041702846F8BD397000E03E70401C44
:101FC000F3E7622006E0662004E06E2002E0722063
:101FD00000E074203870781CE7E7F8B5054608780B
:101FE00016467B2801D0116034E04020E860481C90
:101FF00000F0E7FE074600787D2814D000F0C1FE0F
:10200000041EA86010D0384600F0DBFE01463246C0
:102010002046FFF766FE00F0D4FE002804D02169B8
:10202000002721622DE0781CF8BD306012E0401CD2
:1020300000F0C7FE01463246204600F029F800F0C5
:10204000C0FE051EF0D028782C2805D028787D28E1
:102050001CD035600020F8BD00F093FE0028FAD0B7
:10206000206044600446681C00F0ABFE0146324626
:102070002046FFF736FE00F0A4FE0028EBD02169D1
:102080002162276101783A29D1D0CEE7681CF8BDDA
:10209000F8B516460C00054623D004221BA12046A5
:1020A00001F09EF900281ED005221AA1204601F059
:1020B00097F90127002835D0042218A1204601F005
:1020C0008FF9002831D02078222833D02D2803D052
:1020D00001463039092933D821462846FFF720FC2C
:1020E000F8BD0020F8BD0420E86021E06000001089
:1020F000FF0300008C64000022220000225C080C18
:102100000A0D090075253034780000006E756C6C7E
:102110000000000066616C736500000074727565F4
:1021200000000000601DEF60F8BD02206F61E860F4
:10213000201DF8BD324621462846FFF7D2FDF8BDE6
:102140005B2803D07B2807D03460CAE7324621469B
:10215000284600F040FEF8BD324621462846FFF7EB
:102160003CFFF8BDF7B50D00044601D00E4600E077
:10217000F84E00F006FE074600203060380018D008
:10218000204600F01EFE014632463846FFF780FF2B
:1021900004000FD00298002810D0204600F011FE55
:1021A00004460078002809D03846FFF795FB3460D4
:1021B0000020FEBD3846FFF78FFBF9E7002D00D069
:1021C0002C603846FEBD00221146CBE7FFB58BB030
:1021D00007200290002001900B98002780681D4680
:1021E00016460C46079701E000687F1C0028FBD1CB
:1021F000D84A083A1168002F06D0002D7ED0AF686B
:10220000002E2DD002212CE0002D08D0002E01D070
:10221000211D00E003211846FFF723FC05E0002EF6
:1022200001D0201D00E00320884701000AD07B2058
:102230000870481C002E0DD00A22027000220923CB
:10224000401C05E000200FB0F0BD0370401C521C84
:10225000A242FADB7D220270002242700846F2E7B9
:10226000012102911846491CFFF7FBFB0028EAD028
:102270007B21017000214170A96802980818A860AC
:102280000B98641C8068039054E0002E0DD021460A
:102290002846FFF7E6FB0028D5D0002000E0401CD0
:1022A000A042FCDBA8680019A86003982946006AD0
:1022B000FFF7EAFD284600F070FDA860002E01D06F
:1022C000022000E00120014602902846FFF7C9FBEA
:1022D0000028B8D03A210170A96802982B46081846
:1022E000A86032462146039800F018FA284600F00C
:1022F00054FDA860002E02D0012101E036E000214B
:1023000003980068002800D001200918029128468F
:10231000491CFFF7A6FB002895D0039909680029FE
:1023200001D02C210170A96802980818A8600398B0
:10233000006803900028A8D1002E01D0611C00E0A5
:1023400002212846FFF78DFB002888D0002E05D0FB
:102350000027641E00E07F1CA742FCDB7D2101708A
:10236000002141702868C0190A906CE7B800054642
:10237000884705900028F8D076492846083909682A
:1023800088470690002811D02946059801F0D7F813
:102390002946069801F0D3F80B98641C80680390D6
:1023A000002E3BD002980019029037E06949059849
:1023B0000839496864E003980021006AFFF764FD6A
:1023C000019908908D000699002348513246214614
:1023D000039800F0A3F9059A014650510198401C5A
:1023E00001900898002814D0002912D0084600F067
:1023F000D5FF0546089800F0D1FF2918002E01D01E
:10240000A01C00E00020091802980818801C029007
:1024100001E00120079003980068039003980028CA
:10242000079802D00028C6D011E000280FD14949F2
:1024300002980839096888470A90002807D00A9945
:102440007B2008700A98401C002500905DE0414CFC
:102450000025083C0DE00698AE008059002801D008
:102460006168884705988059002801D061688847CD
:102470006D1CBD42EFDB616806988847616805986E
:102480008847DFE6002E04D0002000E0401CA04278
:10249000FCDBA800069908900790085800F07EFF22
:1024A000029006990798029A0958009800F0E8FFF0
:1024B0000099029809183A200870491C0091059962
:1024C00007980958009800F043FF059907980858A5
:1024D00000F064FF009940180090781E854205D0F6
:1024E00000982C2101700098401C009006990898D3
:1024F00008581849083949688847059908980858BC
:1025000014490839496888476D1CBD42BADB114D32
:102510000698083D69688847696805988847002ECD
:1025200005D00020641E00E0401CA042FCDB0099A6
:102530007D2008700098002141700A9883E6FFB55D
:102540000746052089B002900025B8681E462C4633
:10255000049503E06800001000686D1C0028FBD1A2
:10256000FB4A002D11680FD0002E58D001211846CB
:10257000B568FFF776FA002815D05B210170B068C6
:10258000401CB060BC682BE0002E04D0032118462C
:10259000FFF767FA01E003208847040002D0EDA1AD
:1025A00000F0D6FE20460DB0F0BD0B98002801D0FB
:1025B000022700E00127791C3046FFF752FA002875
:1025C000F1D02C2101700B99401C002902D0202150
:1025D0000170401C00210170B068C019B06024680F
:1025E000002C0ED00A9933462046491C0B9A00F065
:1025F00095F8304600F0D1FBB06020680028EED09E
:10260000D3E702213046FFF72CFA0028CBD05D211A
:10261000017000214170306840190790C3E7A8009D
:1026200001908847060004D0019900F088FFBF6838
:102630001EE00020B7E70A9900233846491C0B9A90
:1026400000F06CF80499890070500499491C0491B9
:1026500000280BD000F0A2FE0B99002900D0012128
:10266000411802980818801C029000E001243F687D
:10267000002F02D0002CDED011E0002C0FD1B44985
:102680000298096888470790002808D007995B20BE
:1026900008700020079C07466070641C32E000242C
:1026A000AB4F06E0A0003058002801D07968884779
:1026B000641CAC42F6DB796830468847B9E7B8005D
:1026C00006900290305800F069FE01900298019A3D
:1026D0003158204600F0D4FE01982418681E874225
:1026E0000AD02C2020700B98641C002802D02020D7
:1026F0002070641C00202070954906984968305865
:1027000088477F1CAF42DADB9149304649688847E9
:102710005D20207000206070079844E770B50024A9
:1027200000285ED0002B37D0057B082D2AD006DC90
:10273000012D13D0022D1CD0042D51D106E0102DF7
:1027400022D0202D22D0402D4AD122E0052118464A
:10275000FFF787F9040043D07F4907E006211846B8
:10276000FFF77FF904003BD07B49083100F0F0FD12
:1027700036E005211846FFF774F9040030D0764999
:102780001031F3E7194624E0194626E0FFF7D7FE9B
:1027900025E0FFF71BFD22E0037B082B18D006DCA9
:1027A000012B0DD0022B10D0042B19D106E0102BD9
:1027B00012D0202B16D0402B12D115E0664801E034
:1027C0006548083000F0CCFA09E063481030F9E7BA
:1027D0000021FFF77AF902E0002100F0EDFA04464B
:1027E000204670BD0023D1E70023D2E70023012259
:1027F000194693E700231A4619468FE7FEB50646A9
:102800000C46084652491546096888470090002042
:102810000146029001946B462A463046FFF77EFF40
:10282000FEBD8168002001E00968401C0029FBD141
:102830007047002807D0806801E00068491E002822
:1028400001D00029F9DC704770B50D46002801D091
:10285000846802E0002408E02468002C05D02946A2
:10286000206AFFF704F80028F6D1204670BD10B5A5
:10287000FFF7EAFF002800D0012010BD70B5054623
:1028800000F07FFA04000ED028222946FDF798FCBC
:1028900000202062FF22E168013211436060E160A4
:1028A0002060204670BD002070BD8268002902D0E3
:1028B000002A03D181607047020002D0106800280E
:1028C000FAD111604A60704770B514000D46064693
:1028D0000DD0206A002802D01D4949688847284643
:1028E00000F03EFA206221463046FFF7DEFF70BD61
:1028F00070B514000D46064612D0A089800505D497
:10290000206A002802D012494968884725620121BF
:10291000E06849020843E06021463046FFF7C5FF02
:1029200070BD10B504460846FFF7A8FF01462046D3
:10293000FFF7BBFF10BD70B505460C461046FFF70C
:102940009DFF024621462846FFF7BEFF70BD0000EE
:10295000600000105B5D00000C21000002468068F2
:1029600001E00068491E002813D00029F9DC416805
:10297000002901D003680B600168002901D0436879
:102980004B609168814201D1016891600021016032
:102990004160704710B5FFF7E1FFFEF79DFF10BDE6
:1029A000F8B50F4606460025846801E024686D1CD2
:1029B000002C0AD03946206AFEF759FF0028F5D1CD
:1029C00029463046FFF7CAFFF8BD0020F8BD10B514
:1029D000FFF7E6FFFEF780FF10BD0B46816801E0C0
:1029E00009685B1E00290AD0002BF9DC11604B68D6
:1029F00053604A6083688B4203D1826070471146FE
:102A000053E750680260704710B50346806801E0E4
:102A10000068491E002814D00029F9DC0168116003
:102A200044685460002900D04A609968814201D10D
:102A30009A6001E051680A60002141600160FEF780
:102A40004BFF10BDF7B5164607460025846801E028
:102A500024686D1C002C0ED0206A0199FEF707FF38
:102A60000028F5D1019800F07BF930623246294602
:102A70003846FFF7C9FFFEBD10B500F082F9002807
:102A800001D00421C16010BD10B500F07AF9002812
:102A900001D00221C16010BD10B500F072F900280C
:102AA00001D00121C16010BD10B5044600F069F9E4
:102AB000002805D0002C01D0022100E00121C160D6
:102AC00010BD70B505460E4600F05BF9040008D055
:102AD000E6610820A561E0602846314600F08AFFE3
:102AE0006061204632E770B5054600F04AF90400FF
:102AF00007D01020E060284600F032F9206100285D
:102B000001D0204622E72046FEF7E6FE00201DE722
:102B100010B500F036F9002801D02021C16010BDA9
:102B200010B500F02EF9002801D04021C16010BD81
:102B3000F3B581B00F460024FFF7EAFF06460025F3
:102B40000EE00198A900405800F0ABFFFFF7B9FF75
:102B500000280BD0002D0ED02060446004466D1C70
:102B6000002E01D0BD42ECDB3046FEBD3046FEF704
:102B7000B3FE0020FEBDB060F0E7F3B581B00F46B4
:102B80000024FFF7C5FF064600250EE00198A900C6
:102B9000405801F0B5F8FFF794FF00280BD0002D46
:102BA0000ED02060446004466D1C002E01D0BD4252
:102BB000ECDB3046FEBD3046FEF78EFE0020FEBD4B
:102BC000B060F0E7F3B581B00F460024FFF7A0FF37
:102BD000064600250DE00198E900411803C9FFF7FA
:102BE00070FF00280BD0002D0ED0206044600446FA
:102BF0006D1C002E01D0BD42EDDB3046FEBD3046DF
:102C0000FEF76AFE0020FEBDB060F0E7F3B581B0CC
:102C10000F460024FFF77CFF064600250CE00198D4
:102C2000A9004058FFF75FFF00280BD0002D0ED001
:102C30002060446004466D1C002E01D0BD42EEDBD6
:102C40003046FEBD3046FEF747FE0020FEBDB060B8
:102C5000F0E7F8B500260F460546002822D000F020
:102C600090F8041E1FD0FF21E86801318843E0601E
:102C700068696061E969A869E161A0612869002863
:102C800004D000F06DF82061002818D0286A0028D0
:102C900004D000F065F82062002810D0002F17D073
:102CA000AD6813E00020F8BD01212846FFF7D1FFF1
:102CB000002804D0002E06D03060466004E0204694
:102CC000FEF70AFEEEE7A0602D680646002DEBD168
:102CD0002046F8BD01463DE0D2B2202A0BD0092A99
:102CE00009D00D2A07D00A2A05D02F2A05D0D3B241
:102CF000222B1CD007E0401C2CE042782F2A04D065
:102D0000D2B22A2A08D0027821E04278401C002A58
:102D100023D00A2AF9D1DFE74278401C002A04D0E8
:102D20002A2AF9D142782F2AF6D1801C12E00A70A3
:102D3000401C0278491C002A08D0222A06D05C2AAE
:102D400002D10A70401C491C0278F0E7D2B20A7026
:102D5000401C491C0278002ABED100200870704730
:102D600070B5064600F01AFB3749401C0968044656
:102D70008847051E04D02246314600F081FB2846D4
:102D8000E4E510B53049282009688847040002D0DE
:102D9000282100F0D4FB204610BD10B5040009D056
:102DA0002068002806D0A168401800F0F7FAA16852
:102DB000401810BD002010BD10B50069FFF764F881
:102DC00010BD00E0401C002804D00178002901D08B
:102DD0002029F7D97047F8B50446087816465B28CD
:102DE00001D011602BE02020E060481CFFF7E9FFD4
:102DF000074600785D2806D0FFF7C3FF051EA060D8
:102E000002D0384609E0781CF8BDFFF7BAFF002869
:102E1000FAD0286045600546601CFFF7D2FF0146E6
:102E200032462846FFF734F9FFF7CBFF040006D0FF
:102E300020782C28E9D020785D2802D0346000204A
:102E4000F8BD601CF8BD00006000001070B50646BB
:102E500000F088FF056830460B30C408E400B44237
:102E600001D8002070BD68682A46002818D0016883
:102E7000A14211D30B46214608318B4208D3436847
:102E800001194B6003681B1B0B605160046001E07B
:102E900041685160001D70BD024640680028E6D1BF
:102EA0002146284600F06AFF0028DCD170BD70B5CD
:102EB0000446051F00F056FF0068002C1AD0446835
:102EC00001E020466468002C01D0AC42F9D30168CF
:102ED0000A18AA4204D12A6805468918016000E050
:102EE000456028684119A14205D16168696021687F
:102EF0004018286070BD6C6070BDFEB50546104678
:102F00000C46184373D0AE468C460020AD1A0146DD
:102F10009C4167D36646002701243D46B61A9D4171
:102F200002D313463A462124654676462F04360CD2
:102F30003E432D0CB61A9D4104D3150C1B042B43A4
:102F400012041034654676462F06360A3E432D0A93
:102F5000B61A9D4104D3150E1B022B4312020834EE
:102F6000654676462F0736093E432D09B61A9D4120
:102F700004D3150F1B012B431201241D6546764611
:102F8000AF07B6083E43AD08B61A9D4104D3950F6E
:102F90009B002B439200A41C65467646EF077608FB
:102FA0003E436D08B61A9D411AD392185B41641CCA
:102FB00016E00018764665464941B71A9D410191D1
:102FC000009009D36046B11A98418E468446009815
:102FD00001990025401C6941DD0752082A435B081E
:102FE000641EE6D57246634603B0F0BDFFE70020DD
:102FF0000146C046C0462A462346F5E710B50446BA
:1030000000F0A8FE0068005DC00602D52046203012
:1030100010BD204610BD00000FB4054910B503AA2D
:10302000029801F095F910BC08BC04B018470000E4
:103030005C0000100FB41CB5074B06AA7B44694620
:103040000090059801F055F90020694601F064F9F7
:103050001CBC08BC04B01847D912000070B5044667
:1030600085690068C10601D5302600E02026C0072A
:1030700007D070BD62683046A1689047206A401C46
:1030800020626D1EF6D570BD70B504468569007866
:10309000C00707D170BD6268A16820209047206AF0
:1030A000401C20626D1EF6D570BD70B50C460546FD
:1030B000012A05D02878800600D5EA69002302E0BD
:1030C000012305E05B1C934202D2E05C0028F9D1A9
:1030D000A869E618C01AA861286AC018286228469C
:1030E000FFF7BCFF04E06A682078A968641C904779
:1030F000B442F8D32846FFF7C7FF70BDF7B50025E7
:1031000075291068009914A611D0C046C046002841
:1031100002DA404211A608E0009909688A0701D541
:103120000FA602E0490704D50EA6012501E0C0461E
:10313000C046009F0024243704E001F055F93031E7
:103140003955641C0028F8D12B4632462146009898
:1031500000F068FEFEBD0000000000002D00000031
:103160002B0000002000000070B504460D462146EB
:103170001068C046C0462188090502D50F4A7A4426
:1031800002E00E4A7A440E3223460021243305E041
:1031900006070009360F965D5E54491C0028F7D1DA
:1031A00020780023000705D5702D03D0002901D019
:1031B00002231132204600F035FE70BD11330000AD
:1031C000F3B50446002081B020622046E1688847BC
:1031D00000287DD0252802D06268A16883E0454F91
:1031E00000257F442046E16888472028064608DB02
:1031F000312E06D2B81920380078002801D00543B6
:10320000F0E7A80701D5042085430020E0610746C8
:10321000A0612A2E0AD0304602F0A6F9002827D055
:10322000B8000019303E0090866119E00298BA009B
:10323000121902C8916102902046E1688847012F67
:10324000064617D1E06900281FDA202085431CE0DC
:1032500000980A21806948430099801930388861B4
:103260002046E1688847064602F07EF90028EFD143
:10327000012F0AD02E2E08D12046E1688847064645
:10328000202005437F1C022FC3DBA069002803DA3E
:103290004042A06101200543E80701D0102085438A
:1032A000002E24D030464138192803D80120C0020E
:1032B00005432036204625603146029A1546FCF724
:1032C0003DFF00280CD0012807D0ED1DE80800E0E4
:1032D0000DE0C0000830029077E72D1D029574E7DD
:1032E00062683046A1689047206A401C6CE7206AFB
:1032F000FEBD0000D532000070B5064600F036FD78
:103300000468054630460A22002101F035F82C6099
:1033100070BD401ECAB24178401C8A4202D00029CA
:10332000F9D10020704730B505460B462A461C7877
:103330001078521C5B1C002801D0A042F7D0002C52
:1033400003D0002802D06D1CEFE7284630BD0000F6
:10335000034670B502460B439B070FD10E4CE601A6
:1033600000E008C208C91D1B9D433542F9D0D9B2FF
:103370001170521C00290DD01B0AF8E70B78491C6C
:103380001370521C002B05D00B78491C1370521C73
:10339000002BF3D170BD00000101010130B5441CC8
:1033A00003E00178401C00290DD08107F9D10B4BB7
:1033B000DD0104C8D11A91432940FAD0001B0A0646
:1033C00003D0C01E30BD001B30BD0A0401D0801EDA
:1033D00030BD0902FCD0401E30BD000001010101DA
:1033E0000346F0B50B439B072DD1244DEF01042A72
:1033F00029D308C810C95E1B9E43121F3E4017D038
:10340000D8B2E1B2401A3106014310D198B2A1B24C
:10341000401A310401430AD118022102000A090AA4
:10342000401A3102014302D1180E210E401AF0BD9C
:10343000A342DCD018BA21BA884201D90120F0BDDC
:103440000020C043F0BD002A01D10020F0BD037868
:103450000C78401C491C002B0DD0A3420BD1521EEE
:1034600009D003780C78401C491C002B03D0A342E0
:1034700001D1521EEBD1181BF0BD0000010101016A
:10348000F8B5042A2CD3830712D00B78491C03709B
:10349000401C521E83070BD00B78491C0370401C44
:1034A000521E830704D00B78491C0370401C521E27
:1034B0008B079B0F05D0C91ADF002023DE1B08C92C
:1034C0000AE0FCF77DFEF8BD1D4608C9FD401C461C
:1034D000B4402C4310C0121F042AF5D2F308C91AB5
:1034E000521EF0D40B78491C0370401C521EEAD4C3
:1034F0000B78491C0370401C012AE4D40978017040
:10350000F8BD01E004C0091F0429FBD28B0701D5D7
:103510000280801CC90700D00270704700290BD0C0
:10352000C30702D00270401C491E022904D383073E
:1035300002D50280801C891EE3E70022EEE700220C
:10354000DFE7002203098B422CD3030A8B4211D3FD
:1035500000239C464EE003460B433CD40022430824
:103560008B4231D303098B421CD3030A8B4201D314
:1035700094463FE0C3098B4201D3CB01C01A5241AC
:1035800083098B4201D38B01C01A524143098B42FC
:1035900001D34B01C01A524103098B4201D30B01E5
:1035A000C01A5241C3088B4201D3CB00C01A52410A
:1035B00083088B4201D38B00C01A524143088B42CF
:1035C00001D34B00C01A5241411A00D20146524168
:1035D000104670475DE0CA0F00D04942031000D387
:1035E0004042534000229C4603098B422DD3030ADC
:1035F0008B4212D3FC22890112BA030A8B420CD3EC
:10360000890192118B4208D3890192118B4204D314
:1036100089013AD0921100E08909C3098B4201D394
:10362000CB01C01A524183098B4201D38B01C01ACE
:10363000524143098B4201D34B01C01A5241030945
:103640008B4201D30B01C01A5241C3088B4201D3F4
:10365000CB00C01A524183088B4201D38B00C01AA1
:103660005241D9D243088B4201D34B00C01A524178
:10367000411A00D20146634652415B10104601D305
:103680004042002B00D54942704763465B1000D38F
:10369000404201B50020C046C04602BDF0B50C4610
:1036A000871A9C410D46861A9D4103D2C01BA14139
:1036B000D21963410D0D1F0DC94EEC1BAE435CD0FA
:1036C0007F057F0D0026002F51D02D05AC46A94364
:1036D000DD020123ED0A1B051D4320231B1B24D4FF
:1036E0001746E740381871412F46E740CC199D40F6
:1036F0002818314661410C0D27D161449A4013D5F9
:103700000023401C594152000ED1400840000122C4
:103710004B005205D34207D305204007C14201D5D3
:10372000B04900E0B0493046F0BD6B00002A00D03F
:1037300001229A181F23203C1B1B01D5002302E005
:10374000E540281871410C0DD7D001242405091932
:10375000C407CD0740084908E40F28436144002C02
:10376000D5D00024401C61419A40D0D1CDE76A05F4
:10377000520DD9D1C90FC907D5E79C4D4E0000287D
:1037800001D0012400E0002434195F00002A01D098
:10379000012600E00026BE19954FAC420CD8AE427F
:1037A0000AD8B44206D001256D05EC42BCD01046C3
:1037B0001946F0BD9942FCD000203946F0BDF0B565
:1037C0001FB40C460F46811A9F412546861A9D411B
:1037D00006D20125ED076F40401ABC4152187B41CB
:1037E000210D1E0D8D1BAC467D4D8D437ED0750584
:1037F0006D0D7CD00D05AE46AC431B031B0B794D04
:1038000052429D41202366469B1B14D31746F74026
:10381000381800260090744160462F460741E4198D
:1038200000989D402818664116D4714671189A4038
:1038300025D5012320E093182A466A415200002B27
:1038400000D0521C1E23203E9B1B002B61DD354106
:10385000EE1728186641E8D5001876415B1C9A409F
:1038600000D3401C4B05F3181524E34010D3002B64
:1038700052D071467118D30FC01802D3491C05B03D
:10388000F0BD0123DB079A42F9D140084000F6E77A
:1038900001225205B21801D1002853D00123CC0ACD
:1038A000DB029943891E002A08D1020C03D0020CC6
:1038B0000004103902E00246002020390023550B95
:1038C00005D112020823550B01D152010D23550CCD
:1038D00001D112011B1DD50C01D192009B1C150DAD
:1038E00001D152005B1C2025EE1A01E02CE022E001
:1038F0000546F54015439840CA1AE10769181305B3
:10390000C918002ABBDA032040070818C10FC907ED
:103910000FE071466118B2E7F107400808437110E3
:1039200071444A000CD001235B059A42A7D2C90F0B
:10393000C9070020A3E74905490D26D1002001E071
:103940000028F4D100219AE7284D6600002801D014
:10395000012100E0002171185F00002A01D001263A
:1039600000E00026BE19224FA94210D8AE420ED860
:10397000B14208D001256D05E94206D01946A802DA
:10398000414010467BE79C4201D0214677E700206A
:10399000394674E710B50C465C4005D50124E407B0
:1039A0006340FFF70CFF10BDFFF778FE10BD30B489
:1039B0000C465C4004D50124E407634030BC6DE64E
:1039C00030BCFCE670B50124E40761400D465D4063
:1039D00002D4FFF763FE70BD6340FFF7F0FE70BDD9
:1039E000FF0700000000F0FF0000F07F0000E0FF94
:1039F0000000F87F30B50346CA02400D1043164D53
:103A0000164C0A1502D02043002A06DBAA1A002A07
:103A100012DDD040FF2A0BDC30BD5205520D01D122
:103A200040004008AA1A07D4D0404042FF2A01DDD6
:103A3000002030BD0028FCDD4A00002B01D0012011
:103A400000E00020101801225205D042F0D8C8171B
:103A5000C043604030BD00001E0400000000008034
:103A60001F22030C02D10F22000402D0030E03D048
:103A700004E00020014670470002083A030F01D11C
:103A80000001121F830F01D18000921E002801DB6C
:103A90004000521E120551184205C012411810462E
:103AA0007047C10FC90700D040420122920711435D
:103AB000D6E701218907D3E7F0B58B4C0F092546DE
:103AC00089B0BD437BD01D092646AE43FAD00E46D1
:103AD0005E402740F60F3E43254071D0240121422D
:103AE000FBD0FF24AD19A4042D1B039501252D0542
:103AF000DB02DB0AC9022B43C90A29431E01090163
:103B0000040F130F050121431701880B8203914312
:103B10002D098C46A90B1E438A039543B30B9A03C8
:103B200096433F09BA0B9403A74302962E467E4361
:103B30000497B6464E19D7190C460196544305977B
:103B40007E43371B7646BF1B3601B646BE0B361981
:103B500000967646BC043719009C01D3641C00947F
:103B60006400002F01D001263443029E049F754358
:103B700066467E430496760034196E00341900942C
:103B8000029C019E1C196643751BAE460694654651
:103B90004519059C05956C43594375460891691A6A
:103BA0000191049E01465143A41B0491611A009C9B
:103BB0000791E10605D061090122114302E072E09C
:103BC0006EE06109089D00272C0A2D066918049DE6
:103BD0007C412A0A2D066918019D6241AC0DAD0297
:103BE0006D185441079A910D920255196141029A3C
:103BF000644658435443069B059A5A43121A131BB2
:103C00009A0E9B015B187A41010B0005C3185141C4
:103C1000220A200644195A419A4200D2491C012026
:103C20004002814203D315230226F64302E0142307
:103C30000326F6432020C51AA9401746AF40DA40B4
:103C40000A4320460399D8400914731819055118DE
:103C5000039A3843D2075140AC4009D00122944026
:103C600006D30022401C5141002C01D140084000E5
:103C70001E4A934212D3012203989206904207DB18
:103C80000520400709181A480143C012414004E0CA
:103C9000032040070818C10FC907002009B0F0BD74
:103CA0000020F107FAE705180C464C4111486D4217
:103CB000A04115D394181A465A410E4864429041C7
:103CC0000ED301204A004005824209D35A008242A5
:103CD00006D35940C90F084AC90700201143DDE740
:103CE00000200649DAE700000000FF07FE07000099
:103CF000FFFFFF7F0000E0FF0000F07F0000F87F83
:103D00000121C9050123411842001B06D3185B0E8F
:103D10000AD0C1100722D206891840075242D14268
:103D200001D5520089187047090208D50146002ABA
:103D300003D0C10FC90700207047104670474202E8
:103D400002D0002002497047072109050143F4E72A
:103D50000000F87F10B500F0FBFD001D10BD00BF96
:103D600025230000004870474009001000487047B4
:103D700038090010704770477047704738B50446DF
:103D80000A4600206946C046C046002805D00246C3
:103D90002046009900F0E0FD012038BD10B501205B
:103DA00001F092F910BDF8B5C046C04605460020A6
:103DB0000C461020C0460646A819A0420DD932462E
:103DC00069460020C046C046070001D101F07CF9D9
:103DD0000098A04200D00546C419FFF7C3FFF61DA6
:103DE00007460560F008C0004619284600F008F8AC
:103DF000B44204D031463868A21B00F0ADFDF8BDD6
:103E0000002101604160806070471020704710B54C
:103E1000FFF7ACFF006810BD10B50446FFF7A6FF22
:103E2000046010BDFFB504460D4681B024300090FB
:103E30002168880604D51022E0699143216000E0E2
:103E40000120A84201DD471B00E000270498A1697A
:103E50007A191018081AA0612078C00602D42046EA
:103E6000FFF7FCF8002608E003986268A168805D0F
:103E70009047206A401C761C206204988642F3DB3F
:103E80002078C0060AD52046FFF7E8F806E0626809
:103E9000A16830209047206A401C206238467F1E6F
:103EA0000028F4DC07E000986268A168405D904754
:103EB000206A401C206228466D1E0028F3DC204644
:103EC000FFF7E2F82078000602D5022005B0F0BD29
:103ED0000120FBE77047FFB50C461E468FB003CAB2
:103EE000089009914F007D0D00D16D1E00210846FC
:103EF0000020C0460321099A89050840002A03DAF8
:103F00008200801840080840800D01280A9002DDD8
:103F10000020C0430A90089807430DD0EF48F049AD
:103F2000281848430714189800281DD07542291EE8
:103F30001DDD0A9842421BE01898012802D000209B
:103F4000302104E00020F24305E02154401CB0423F
:103F5000FBDB30460022189B002121540F998B6017
:103F60000A60486013B0F0BDBD1B6D1CDFE70A9A04
:103F7000002900DA69420BA800F0DEFD0BAB07CB8D
:103F800003AB07C30899099800F03AFE6B4607C3D4
:103F90000146D4480918002D00910ADDD149039843
:103FA0000A9A4942401803A90390684601F05BF859
:103FB00007E003990A9A081803A90390684601F0DC
:103FC0001AF86B4607C30004000C03D00020C0435E
:103FD000410800E01046189A002A03D000220092FF
:103FE00015461EE0751E05D400F0D0FC3032625537
:103FF0006D1EF9D501220843079602D000227F1CCE
:1040000004E02078302801D100227F1E002A069784
:1040100089D01EE0112D07DA00F0B8FC303262556D
:104020006D1C02460A43F5D1084303D000980028CE
:1040300019D00EE00021681E05E0235C625C635429
:104040002254401E491C8142F7DBA81B401E0795E5
:104050000690079A18990020A0540F98079B069A7B
:1040600081600CC07EE71126002018905BE7D21D0E
:10407000F0B50D460446D10893B0C90003C90C90B1
:104080000D9101F0DBF902460D98C00F01D02D20F3
:1040900007E02068810701D52B2002E04007C00F10
:1040A0004001032A0F9001D0072A05DB0346294669
:1040B000204600F0A9FC0EE12078800601D5E769D2
:1040C00000E006272846652D04D0662814D0672D09
:1040D00069D12DE00020112F009001DB112300E0B9
:1040E0007B1C0CAA03A910A8FFF7F5FE1199002666
:1040F00010987D1C0E9142E001203B460CAAC0079F
:104100000B900120009003A910A8FFF7E4FE119D79
:1041100012981099002600280E9501D1781C0D18D0
:10412000781B02D446427D1C761EE81B00903AE0C4
:10413000012F00DA01270020112F009001DD11234B
:1041400000E03B460CAA03A910A8FFF7C4FE119992
:104150003D46109800260E91217809070BD40E9940
:10416000A94200DA0D4603A9012D04DD4A19203ABF
:10417000D27F302A06D0B84201DA011D04DA0121CB
:1041800000910FE06D1EEFE7002802DC86192D1A62
:1041900003E0411CA94200DD0D46801B401C00903D
:1041A0000120C0070B902078000705D40098A84292
:1041B00002DB0020C043009069460020C8720B98C3
:1041C000012102AF0337C907884225D00220109091
:1041D0002B2011900B9800280BDA40420B902D20D9
:1041E000119006E00B9800F0FFF830317F1E0B9025
:1041F00039701099481E00291090F3DC0B980028A4
:10420000F0D111987F1E38702088000501D5452017
:1042100000E065207F1E387001A8C01BC01D0B90F8
:104220000F98002800D0012041190098C0170918E4
:104230000B980818A169081A401EA0612078C006D2
:1042400002D42046FEF70AFF0F98002805D06268C6
:10425000A1689047206A401C20622078C00625D5BE
:104260002046FEF7FBFE21E0002E07DB0E98B04251
:1042700004DD03A86268805DA16802E06268A1684D
:1042800030209047206A761C401C20620098401E17
:10429000002800900AD100F05BFBC06862680168EA
:1042A000405CA1689047206A401C206228466D1E31
:1042B0000028D9DC07E062683878A1687F1C904745
:1042C000206A401C20620B99481E00290B90F2DCEA
:1042D0002046FEF7D9FE032044E6000001FCFFFF64
:1042E000104D0000E1DFFFFF01694A1C0261087800
:1042F000704700B58FB002910021059105490193E7
:1043000079440391114604906846FEF759FF0FB0B7
:1043100000BD0000E5FFFFFF0A681070521C0A6034
:10432000704710B54369002B02D0C046C04601E07B
:10433000FEF7BBFE012010BD1278014624310A7041
:1043400000224A700122ECE711680022D243E8E71C
:10435000084B70B50D467B44FFF7CBFF044628465B
:10436000FDF7BCF9002802D00020C04370BD2046F4
:1043700070BD000059D3FFFFF7B50F460026009C23
:104380002578641C002D05D0FFF7E4FC0068405D33
:10439000C007F5D12B2D02D02D2D18D0641E394623
:1043A000029A204600F074FB002F04D03968A14225
:1043B00001D1009939607105022400290BDA4042CD
:1043C000002803DDFFF7D2FC0460A007FEBD01203A
:1043D00080020643E3E70028F8DAFFF7C7FC046031
:1043E0000048FEBDFFFFFF7F01468008081A020952
:1043F0001018020A1018020C1018C00882001218B7
:104400005200891A01E0401C0A390A29FBD2704780
:10441000F8B5224C4E00069DA6420AD8A64201D10C
:10442000002806D15E00A64203D8A6420AD1002A7F
:1044300008D00D24240425422CD02946002000F069
:1044400049FEF8BD0C461C430CD4994202D0EFF350
:104450000080F8BD904202D0EFF30080F8BDEFF38A
:104460000080F8BD09242407E5008B4206D0EFF355
:104470000080A043591A06D2284304E0101A05D33D
:10448000EFF30080A04380F30088F8BDEFF30080D5
:10449000A043F1E7009500F035FEF8BD0000E0FF15
:1044A000F0B5F94D0C091E092C402E402F468BB05B
:1044B000A7437DD0B543FCD0002E7AD0002CFCD091
:1044C0000D465D40ED0F2543AC1BFF25AD0464197F
:1044D0000894C502440DC9022143500DDC02044377
:1044E0000120C00701430443D2020191200C110CAA
:1044F00000958C46010423468B430A9161460904CA
:10450000E24D8A430991010A7D44491980390978AD
:1045100005464D4301266D18F605751B6943C90C08
:10452000640B891C4C436418B5012C1B250C2E040C
:10453000B4434C434D43210C691889090591009DF2
:10454000E90701D00121C90704912C4601996708A8
:10455000CD072F434C08059DE10B4D432D0C2946FB
:104560006646754302950D4645432E46029D7D1BCA
:10457000B44100950D465D4301942C0C2F040D466B
:104580005543AE462D0C3D43029503947546049C5D
:104590002D04641B049406D2029C039D641C002617
:1045A00075410395029401AC70CC009F7D1B01E026
:1045B0003EE162E1B4410904009507910194059937
:1045C000A4086143090C0C464443650BE7040C4600
:1045D00066467443A646640B3C43039502947446B6
:1045E000049DE4042C1B049406D2029C039D641CCD
:1045F000002675410395029401AC70CC009F7D1B91
:10460000B44101940C465C430095650FE7000C46ED
:104610005443A646640F3C43039502947446049D9C
:10462000E4002C1B049406D2029C039D641C00260B
:1046300075410395029401AC70CC009F7D1BB44181
:10464000AE09AF06049DC900AD092F43049DA40621
:10465000AD060495079D344369180791059DE10B4C
:104660004D432D0C29466646754302950D4645433C
:104670002E46029D7D1BB44100950D465D4301947D
:104680002C0C2F040D465543AE462D0C3D43029590
:1046900003947546049C2D04641B049406D2029C6A
:1046A000039D641C002675410395029401AC70CCF7
:1046B000009F7D1BB44101948C050694079C890AD8
:1046C000611800950791019C0599A4086143090CA4
:1046D0000D464543680BEF040D46644665436C0B7D
:1046E0003C43049FED047D1BAC4602D20025641CB4
:1046F0006841009E019D371B85410846584301953E
:104700000C46460FC5005443600F28436546E4003D
:104710002C1B02D20025401C6E41019D3F1AB54161
:104720002846BD09800628438446A009BF064E02DC
:104730000699A40676180743079D002068410A9948
:10474000079019430020099B00906046FF1913430E
:104750004041E20F64003A43A4460446D71A8C4114
:10476000A04203D90120009020463A46C70F941872
:1047700040416246D20F2243644664000494009C88
:10478000BE466400D71AA446044602978C41774679
:10479000002F01D1A04204D96046401C8446029AF1
:1047A0002046C40FA64694184041049A0546D20FED
:1047B000224364466400D31A8D417146002901D119
:1047C000A84202D928461A46641C10430122002838
:1047D00000D0164361020020079B891904465C4102
:1047E0000223002C02DB491813466441089DCE0ABF
:1047F0002D145D194B056705E10A2C050D19089963
:104800003E43C9076940002B08D0934006D30022DD
:10481000761C5141002B01D1760876001C4A002DF0
:1048200043DB154241D0AA433FD030460BB0F0BD28
:1048300006180D464D41174C7642AC411AD39518D7
:104840001C465C41134A6D42A24113D3012252051A
:104850004C00D4420AD15C00D4420BD04B4002D56C
:1048600092021143E2E749004908DFE75940C90FC6
:10487000C90718E000200849D8E7054801420DD1D2
:104880000342F7D0F2E700000000FF074C200000D1
:104890000000F07F0000E0FF0000F87F1148594061
:1048A0000143C01241400020C0E70123089A9B0643
:1048B0009A4205DC032252078918C90FC907B5E7D8
:1048C000052252078918074A1143D2125140ADE719
:1048D00070B515461C4602460B4628462146FFF792
:1048E000DFFD70BDFFFFFF7F70B505464800440D3A
:1048F000124B0020002C0AD0634008D09A4206DAFE
:104900006642B24203DD12054019514170BD002CD0
:1049100008D0002B09D0C90FC907002AF6DB084AC6
:10492000114370BDC90FC90770BD28460A03104363
:1049300002D00020034970BD284670BDFF0700006B
:104940000000F07F0000F87F004870473809001031
:10495000004870475809001010B50346406801E050
:1049600003464068002801D08842F9D31868C3186C
:104970008B4206D0CB1CD808C000001D411A521A29
:104980000146081D0A60FEF792FA10BD0B4670B58D
:10499000024689078008084319469D08141AA94150
:1049A00025090807054308092C194841250A01066D
:1049B0000D43010A2C194141200C0D0428430D0C14
:1049C00000194D41002140194D41C00869070843B5
:1049D000E908840F8D002543840024184D412419D3
:1049E0006D41121BAB4107E00925ED432C11521913
:1049F00063410024401C61411C460A250026551BCA
:104A0000B441F1D270BD0000F8B51F460446012341
:104A10000068DB02032601461840072A05DB002850
:104A200001D017A506E017A504E0002801D016A5BF
:104A300000E016A5102081432160A069C01E002F50
:104A4000A06101D0401EA0612046FEF707FB002FA9
:104A500009D038466268A1689047206A401C2062ED
:104A6000C01C206206E0206AFAE762682878A16824
:104A70006D1C9047761EF8D22046FEF705FBF8BD68
:104A80004E414E006E616E00494E4600696E6600F2
:104A9000F7B5154682B00027029C2078641C019768
:104AA000302802D0002D15D015E020780127641C95
:104AB000782804D0582802D0002D09D00BE0002D12
:104AC00001D0102D07D1207800271025641C02E0AA
:104AD000082500E00A250026009610E0009901272D
:104AE0006943081829467143020C80B200908E1861
:104AF0003804864201D3012001902078641C2946A5
:104B000000F0AAFB0028E9DA0398002805D0002F5E
:104B100001D0641E00E0029C04600198002806D0C9
:104B2000FFF724F902210160C81E05B0F0BD00990D
:104B300030040843F9E70000F7B516468AB02F485D
:104B400078446C4603467C33C06F5A689B680DC43A
:104B50002A487844763003AC0DC80DC43720C00114
:104B6000081837211B30FEF7F6FC05460C46803D41
:104B70001B3C02D56442012000E000200027099080
:104B80000FE0E0070BD00C201C49784379443246F3
:104B90004C394118684600F02EFA6B4607C3641082
:104BA0007F1C002CEDD1154F7F442C3F15E0E8070A
:104BB00011D02001C0190EC8069108930792006811
:104BC000F04201D198190890324606A903A800F0D6
:104BD00012FA03AB07C36D10641C002DE7D13246F7
:104BE00069460998002803A802D000F03CFA01E0C9
:104BF00000F001FA0A9B07C30DB0F0BD9C1A00003B
:104C0000034640000A4610B5400D0BD00121C907EC
:104C10000F24A40200191C0364082143540D2143EE
:104C2000D20207E000210120F2E7D40F490021431E
:104C30005200401E0029F8DADB0FDB07184310BDD5
:104C4000FFB50D46144685B04868516800F0DDFB9D
:104C500000910190A868A16800F0D7FB0291039031
:104C6000A868616800F0D1FB029A12188242029291
:104C700001D2012000E00020019A0B18D218002870
:104C8000019202D08A4202D903E08A4201D2012075
:104C900000E000200099081800906868A16800F002
:104CA000B4FB029A12188242029201D2012000E063
:104CB0000020019A0B18D2180028019202D08A42D3
:104CC00002D903E08A4201D2012000E000200099CD
:104CD00008180090286821684000490040084908E9
:104CE0004018F549471814E001994000C90F0843DE
:104CF0000090019802994000C90F08430190029862
:104D000003994000C90F08430290039840007F1E9A
:104D1000039000980028E7DA0898002801D0E74EB1
:104D200000E00026B74228DAF71BF806C00E15D0BF
:104D3000029B2021091A039A8B401A430392029A7C
:104D4000019BC2408B401A430292019A009BC240D1
:104D50008B4000991A430192C14000917A110BD007
:104D60006B460320811A01D5002101E089005958C2
:104D70008700401ED951F5D537460398029900287F
:104D800000D00120014308980291002808460CD069
:104D9000002800D001200199019A4905084301210A
:104DA000D20AC902D202019200E001210E9B012227
:104DB000D207012B02D0002B03D013E0002807D12B
:104DC00016E0904204D890420CD1019B0B4209D0CE
:104DD000019B5918019105D10099491C009101D1FD
:104DE0007F1C0092002803D0102108460020C046F6
:104DF00028682168019B009A4840C10F0598C9079F
:104E000039430EC009B0F0BDFFB587B0099A0898C4
:104E1000089953689268406889689646002203930F
:104E200017469446089A12685300099A5B0812685C
:104E3000520052089A1AA24BD4180A9A002A01D09A
:104E4000352200E0402206920022012315460492FA
:104E5000DB07059324E0002D05D175460346039E2C
:104E60004D1BB34109D375466646039B491B049D00
:104E70009841059B7519AC465F4163463B4308D09A
:104E8000059B049EDD0776082E435B080496059378
:104E900001E0521E641EC50FED0749184041521C27
:104EA000069B9A42D7DB002D04D17546039A6B1AF4
:104EB000824101D203200CE0039A0B466B40424032
:104EC000134303D0014303D0012002E0022000E09D
:104ED0000020614601910021009702910A99002962
:104EE00005D0614640020143744B019102E0800706
:104EF000002302909C423ADA1A1BD006C00E15D04D
:104F0000029D2021019C091AC5408C402543029C2A
:104F10008C4000D001242543019C02953D46C440AD
:104F20008D4039462C43C1400194009154111DD04D
:104F30006D460221002202290CD10320001B07E04C
:104F4000002804DB8600AE59002E00D00122401C50
:104F50000328F5DB081B02D588002A5004E08000F6
:104F6000285810438A00A850491EE3D51C460A98C9
:104F7000002802980CD0002800D001200199019A45
:104F8000490508430121D20AC902D202019200E078
:104F90000121109B0122D207012B02D0002B03D04C
:104FA00013E0002807D116E0904204D890420CD1BB
:104FB000019B0B4209D0019B5918019105D1009921
:104FC000491C009101D1641C0092002803D01021DB
:104FD00008460020C04608980999019A00680968A7
:104FE00048400099C30F0798DB07234303608260A2
:104FF00041600BB0F0BD1FB5002300920A46014688
:1050000001A8FFF71DFE01AB07CB04B010BDF0B542
:1050100085B0012300920A46014601A8FFF710FE61
:1050200001990F2202989202CF0F4900039E49086E
:105030008C1AFF070021002800DB0C4645002148A0
:105040006D08844206D30D460E46044610210846DC
:105050000020C0462005E90A084369053843F20AE2
:1050600005B01143F0BD1FB5002300920A4601466A
:1050700001A8FFF7C9FE01AB07CBC6E71FB50123A7
:1050800000920A46014601A8FFF7BEFE01AB0F24BD
:1050900007CBA402C30F4000DB074008001B002918
:1050A00000DB0020490000054908CC0A20434905DF
:1050B0001843D20A1143A8E702C0FFFF013C0000D9
:1050C000FF3F0000FF07000010B500F0E3F800F01C
:1050D000DAF810BDC80212D54803400F002804D0EA
:1050E000C803C043012188407047EFF300800001EE
:1050F000000903210907084380F300887047002056
:105100007047000010B500200249029A00F02EF905
:1051100010BD00000000F87FF0B53D4B02460C4684
:105120001C400020002C63D03A4D8B4366D00029F0
:105130006BDB0B0D1D05A94301252D05294301241A
:10514000FD33E34001D392184941FF3381339C463C
:105150008B02940D0121234389074C4292020027C0
:105160001B198C105D1A04D42D1B02D42B4665002C
:10517000491992185B416408F4D15C1A08D40125DE
:10518000ED07EE175519744102D42A462346491CEF
:1051900094185B41012292071D46E61B8D4106D4FF
:1051A000B61A854103D42B46550034467F1924197D
:1051B0005B415208802AEFD1234300D002233846B6
:1051C0000A22D04001D3012213438A0510436246CC
:1051D000890A12058918002B09D00122D34002D375
:1051E0000022401C5141002B01D140084000F0BD7D
:1051F0000B03134307D0C90FC907F0BD08031043C1
:1052000003D1002901DB1046F0BD00202946F0BD86
:105210000000F07F0000F87F70477546FFF794FBB1
:10522000AE46050069465346C008C000854618B022
:1052300020B5FAF7F1FF60BC00274908B646002602
:10524000C0C5C0C5C0C5C0C5C0C5C0C5C0C5C0C536
:10525000403D49008D4670473A2800D2303820231F
:1052600002469A43412A01D310463738884201D377
:105270000020C043704710B50446C046C0462046D3
:10528000FAF797FF10BD10B5002801D0FCF729FAF6
:1052900010BD000010B5012805D0002103A000F0CA
:1052A00094F8012010BD09A1F8E7000053494752C6
:1052B000544D454D3A204F7574206F6620686561E6
:1052C00070206D656D6F7279000000003A204865AE
:1052D0006170206D656D6F727920636F7272757089
:1052E00074656400024670B50A4392072AD11E4DC8
:1052F000EE0104C808C9541B9443344017D0D0B2FF
:10530000D9B2401A2106014310D190B299B2401A85
:10531000210401430AD110021902000A090A401AA5
:105320002102014302D1100E190E401A70BD9A429B
:10533000DFD010BA19BA884201D9012070BD00200F
:10534000C04370BD02780B78401C491C002A09D06C
:105350009A4207D102780B78401C491C002A01D0E0
:105360009A42EFD0D01A70BD0101010110B50C4670
:105370001107090F092904D00A290AD008290CD1DC
:1053800004E011460820FFF7A5FE06E0510606D509
:1053900001E0510601D50120C007214610BDD1060C
:1053A00007D501010909CC084907000E000604438E
:1053B00009E0410F20024907000A0143200E0006C0
:1053C0001D22D14101430846E7E770B505460C466A
:1053D0000A2000E06D1C00F012F8002D06D028789D
:1053E0000028F7D102E0641C00F009F8002C02D07C
:1053F00020780028F7D10A2000F001F870BD08B528
:10540000694608700320ABBE08BDF8B5040C8BB22A
:10541000264682B25E43104658430D0C370C3604C4
:1054200000218019164679416E43370C36048019E5
:10543000264679416E438919F8BD00004900CA0229
:105440000243100000D004204A0D01D00122104375
:10545000044A490D914201D102210843012800D19B
:1054600005207047FF070000F8B504464F1EC8002E
:105470000838211815461E46086849683A4606232A
:105480009A4310D02A463346FEF716FB3A46D2001E
:10549000083AA3181A687F1E5B68FEF77BFA06229B
:1054A0003B469343EED1022F23D0042F11D0062F79
:1054B0002FD12A463346FEF7FFFAE36AA26AFEF7C7
:1054C00069FA2A463346FEF7F7FA636A226AFEF75C
:1054D00061FA2A463346FEF7EFFAE369A269FEF75E
:1054E00059FA2A463346FEF7E7FA63692269FEF75E
:1054F00051FA2A463346FEF7DFFAE368A268FEF760
:1055000049FA2A463346FEF7D7FA63682268FEF75F
:1055100041FAF8BD002210B5134610460149FEF7C6
:10552000BFFF10BD0000F03F10B5FEF733FA10BD0D
:10553000002210B5134610461146FEF7B1FF10BD0C
:1055400010B50721024A00200907FFF7CDF910BD69
:1055500001030000034A10B500201107FFF7C4F94A
:1055600010BD000001FDFFFF30380A2801D20120E4
:105570007047002070470000F8B54A002B4B520DD1
:10558000D6182B4A0C460546142E2BDA002E12DABA
:10559000284BFEF7FFF90022134600F003FE40D22D
:1055A000002C02DB002425463BE060004008284335
:1055B00037D0214C14E0214F0B46F7403B402B43A2
:1055C00031D01C4BFEF7E6F90022134600F0EAFD4D
:1055D00027D2002C03DA01200005F0400419BC4357
:1055E00000251EE0332E1EDC33460027143BFF430C
:1055F000DF40384217D00F4BFEF7E4F90022134684
:1056000000F0D0FD0DD2002C0ADA142E0CD034207C
:10561000811B012088404019A84200D2641C054625
:10562000BD4321462846F8BD641CF9E701FCFFFF95
:105630009C7500883CE4377E0000F0BFFFFF0F0040
:10564000F0B51FB496B084460C460246199D1898D2
:105650000390490068006300490840080193002A4C
:1056600001D0012600E000269E19FE4BF6185B10C3
:105670009E422BD36E00039F0296002F00D001277D
:10568000F719F84EF84BBE199E421FD3039E0346EE
:10569000F64F334309D03B469C4201D1002A04D047
:1056A000019B002A05D0012604E0002039461BB0EA
:1056B000F0BD00269E19EE4B9E4207D8039F029E26
:1056C000002F00D00127F6199E4207D92B466046CD
:1056D0002146189AFFF728FF1BB0F0BD0023002CCD
:1056E00029DAE44EB04226DAE34EB04201DB02236F
:1056F00021E0DE4EB0421EDBE04E070DBE19142E37
:1057000009DD3427BF1B039EFE400196BE40039F68
:10571000BE420BD00FE0039F002F0CD11427BF1BFC
:105720000646FE400196BE40864204D1019BDE073C
:10573000F60F02239B1B0E46164318D1002D16DAD6
:10574000002C03D0022B01D0012B06D00220FEF743
:1057500063FBFFF7DFFE1BB0F0BD0220FEF75CFB32
:10576000FFF7D8FE0122D20751401BB0F0BD039EC7
:10577000002E61D1BF4EB04220D1C148844201D138
:10578000002A08D0B948814209DB002D10DB1898A7
:1057900029461BB0F0BD0020B4491BB0F0BD002D60
:1057A00006DA01222946D207189851401BB0F0BDF5
:1057B000B4497944086849681BB0F0BDAB4FB842A2
:1057C00025D1002D1FDA002904D0B14212D1002AC0
:1057D00009D018E0002A72D1A649E20F0020D207B2
:1057E00011431BB0F0BD0020E20F0146D207114368
:1057F0001BB0F0BDB14206DA234600203946FEF761
:105800004FFE1BB0F0BD104621461BB0F0BDB142AB
:1058100012DA0126B607B54203D1234610461946CF
:10582000FEE3994EB54207D1261E05DB10463146F0
:1058300000F004FC1BB0F0BD67007F081646002A8C
:1058400040D100290AD08B4A914229D1002C0EDD8B
:10585000002D1CDB002011461BB0F0BD022B16D022
:10586000002C14D0012B12D1002C14DB0FE0002CE3
:1058700028DA002D09DB012B03D000207D491BB065
:10588000F0BD002081491BB0F0BD012B03D00020EA
:1058900001461BB0F0BD00200121C9071BB0F0BDBF
:1058A000724A91420ED1002C01DA002B17D0022B44
:1058B00006D00020C043FEF7F4F81BB0F0BD90E224
:1058C0000120F8E7E217521C94461A4307D0002241
:1058D0000892664C62465B1E1A4307D009E001201D
:1058E000FEF79AFAFFF724FE1BB0F0BD0022644CCD
:1058F0000892674A90427DDD664B674A98421FDDF9
:10590000914202DC002D05DB4DE05848814217DB57
:10591000002D48DD0220FEF77FFAFFF711FE054655
:105920000E460022534B21460898FEF7C5F808465C
:1059300071004908C00FC007014328461BB0F0BDE5
:10594000914215DA002D2EDA0220FEF765FAFFF7F4
:10595000F7FD05460E460022464B21460898FEF705
:10596000ABF872005208C80FC0070243114617E097
:105970003E4B994223DD002D15DD0220FEF74CFA47
:10598000FFF7DEFD05460E4600223A4B21460898F9
:10599000FEF792F8084671004908C00FC00701439E
:1059A00028461BB0F0BD0220FEF736FAFFF7D2FD05
:1059B00049004908E20FD20711431BB0F0BD002295
:1059C00030463946FDF7F3FF012205460E46D24325
:1059D000FEF78AFF314A324BFDF7F4FF2A46334681
:1059E000FEF76AF80022284BFDF7ECFF07462A462F
:1059F000334600E064E0039110461946FEF75CF878
:105A00003A46039BFEF758F80746032209915207CE
:105A1000244B28463146FEF74FF807910C90224A56
:105A2000204B38460999FEF747F8074601911F4A6F
:105A30001F4B28463146FEF73FF83A46019BFDF7DB
:105A4000B6FF07460B460246099107990C98FDF7E9
:105A5000A1FF00250E462846079B0C9AFDF7A7FFDD
:105A60003A4627E0FFFF1F00FFFF0F000000F03F56
:105A70000000E0FF0000F07F0000404301FCFFFF5A
:105A80000000F0BF220E00000000E03F0000F0FF29
:105A90000000E0410000F043FFFFEF3F5555555532
:105AA0005555D53F4715F73FFE822B6544DF5DF81E
:105AB0000BAE543E099BFDF785FF02460B4652E1B3
:105AC000012500202D05A94207DA35223046394646
:105AD000FEF70AFF06463420C0430A151218FE4896
